:100000000C94B3000C94DB000C94DB000C946301A3
:100010000C948D010C94B7010C94DB000C94DB0064
:100020000C94DB000C94DB000C94DB000C94DB00E4
:100030000C94DB000C94DB000C94DB000C94DB00D4
:100040000C946F160C94DB000C94AB190C94091AE9
:100050000C94DB000C94DB000C94DB000C94DB00B4
:100060000C945B060C94DB0000C201000300150039
:100070001500120000E1000014002B002B002900E5
:10008000009600002500490049004600127A000051
:100090002D00590059005800807000002E006200A9
:1000A00062005F00004B0000470094009400910044
:1000B000403800006000C500C500C2008025000077
:1000C0009200290129012601C012000028015302D3
:1000D00053025002600900005002A504A504A204C6
:1000E000B0040000A3044B094B0948095802000062
:1000F0004B099712971293122C0100009712332587
:100100003325302500000000240027002A000000CD
:100110000000250028002B0000000000230026001E
:10012000290004040404040404040202020202027A
:1001300003030303030301020408102040800102AB
:10014000040810200102040810200000000700022B
:100150000100000304060000000000000000F3049A
:100160002908831B220811241FBECFEFD8E0DEBF71
:10017000CDBF11E0A0E0B1E0E8EFF9E302C00590E7
:100180000D92A034B107D9F715E0A0E4B1E001C0A9
:100190001D92AA3CB107E1F711E0C4E6D1E004C02A
:1001A0002297FE010E94EB1CCE35D107C9F70E94B1
:1001B000D91B0C94EF1C0C940000FC0180914001B1
:1001C000909141018E179F0711F480E00895838D6F
:1001D0008E7F838F9FB7F8941092620180916201A5
:1001E00080936301F0934101E09340019FBF81E060
:1001F00008950F931F93CF93DF93FC01738D769532
:100200007170A685B7859585772329F08C91892310
:1002100009F454C004C08C91892309F04FC083892C
:10022000948920E001972FEF8F3F9207D9F7C58976
:10023000D689A685B785158560E031E040E050E0BD
:1002400000E0CE01202F01972FEF8F3F9207D9F7C3
:100250008C91812311F0632B03C0832F8095682339
:10026000330F4F5F5F4F4830510559F78789908DA5
:1002700020E001972FEF8F3F9207D9F7711160951A
:10028000809162012091630190E001968F719070DE
:1002900030E08217930779F0E0916201F0E0EE5BC5
:1002A000FE4F60838091620190E001968F719070A3
:1002B0008093620103C0838D8160838FDF91CF9132
:1002C0001F910F9108951F920F920FB60F92112454
:1002D0002F933F934F935F936F937F938F939F934E
:1002E000AF93BF93EF93FF938091400190914101B1
:1002F000009711F00E94F900FF91EF91BF91AF912B
:100300009F918F917F916F915F914F913F912F912D
:100310000F900FBE0F901F9018951F920F920FB65F
:100320000F9211242F933F934F935F936F937F937B
:100330008F939F93AF93BF93EF93FF93809140016F
:1003400090914101009711F00E94F900FF91EF9107
:10035000BF91AF919F918F917F916F915F914F91DD
:100360003F912F910F900FBE0F901F9018951F92E5
:100370000F920FB60F9211242F933F934F935F93D9
:100380006F937F938F939F93AF93BF93EF93FF935D
:100390008091400190914101009711F00E94F90075
:1003A000FF91EF91BF91AF919F918F917F916F914D
:1003B0005F914F913F912F910F900FBE0F901F9023
:1003C0001895CF92DF92EF92FF920F931F93CF93E6
:1003D000DF93EC017A018B011A8E198E188E1F8A19
:1003E0001E8A1D8A1C8A1B8A20E030E06901CC0C21
:1003F000DD1CC20ED31EB601660F771F660F771F76
:10040000AB0148595F4FFA0185919591A591B4913F
:100410008E159F05A007B107E9F4FB01E459FF4FD2
:10042000859194919C8B8B8BFB01E259FF4F8591B9
:1004300094919E8B8D8BFB01E059FF4F8591949198
:10044000988F8F8BFB01EE58FF4F859194919A8F77
:10045000898F06C02F5F3F4F2D30310509F0C6CF81
:100460008F89988D892B09F449C04C85463108F055
:100470003DC090916800483010F484E005C04E30D3
:1004800010F082E001C081E0892B80936800483041
:1004900028F4EDE6F0E0ADE6B0E00BC04E3028F019
:1004A000ECE6F0E0ACE6B0E004C0EBE6F0E0ABE692
:1004B000B0E05081483040F481E090E002C0880F05
:1004C000991F4A95E2F710C0242F30E04E3018F4FF
:1004D0002850304002C02E50304081E090E002C0F1
:1004E000880F991F2A95E2F7852B8C93898D9A8D19
:1004F00020E001972FEF8F3F9207D9F780914001BD
:10050000909141018C179D0781F08B8D8E7F8B8F91
:100510009FB7F89410926201809162018093630109
:10052000D0934101C09340019FBFDF91CF911F91B4
:100530000F91FF90EF90DF90CF900895FC014485DC
:10054000463180F5483028F4EDE6F0E0ADE6B0E065
:100550000BC04E3028F4EBE6F0E0ABE6B0E004C0B0
:10056000ECE6F0E0ACE6B0E05081483040F481E0E9
:1005700090E002C0880F991F4A95E2F710C0242F1F
:1005800030E04E3018F42850304002C02E50304039
:1005900081E090E002C0880F991F2A95E2F78095CC
:1005A00085238C930895FC0181E191E09183808300
:1005B000CF010E949E020895209140013091410197
:1005C0002817390731F490916301809162019817DF
:1005D00019F42FEF3FEF0FC0E0916301F0E0EE5B05
:1005E000FE4F20818091630190E001968F719070A1
:1005F0008093630130E0C90108952091400130915A
:1006000041012817390719F020E030E00DC0809132
:1006100062012091630190E08096821B910960E263
:1006200070E00E94B41C9C01C90108950F931F93B0
:10063000DC0159968D919C915A97892B49F481E060
:1006400090E013969C938E93129720E030E097C031
:100650000FB7F8945B968C915B975196ED91FC9156
:10066000529750962C91509781FF8DC08081822B9C
:10067000808359968D919C915A97069620E0019718
:100680002FEF8F3F9207D9F75B968C915B9781FF95
:1006900035C031E040E050E070E010E0832F90E0A2
:1006A000862397235196ED91FC91529750962C9169
:1006B0005097892B29F0808120952823208303C01F
:1006C0008081822B808359968D919C915A97212FFE
:1006D00001972FEF8F3F9207D9F7330F4F5F5F4F8F
:1006E00048305105D9F65196ED91FC915297908181
:1006F00050968C9150978095892333C031E040E02B
:1007000050E070E010E0832F90E08623972351960D
:10071000ED91FC91529750962C915097892B21F096
:100720008081822B808304C08081209528232083B0
:1007300059968D919C915A97212F01972FEF8F3FBA
:100740009207D9F7330F4F5F5F4F48305105D9F605
:100750005196ED91FC915297808150969C915097C3
:10076000892B80830FBF59968D919C915A9720E0D9
:1007700001972FEF8F3F9207D9F721E030E0C901B1
:100780001F910F910895808120952823208371CF98
:1007900020914001309141012817390749F49FB752
:1007A000F8941092620180916201809363019FBF6F
:1007B000089520914001309141012817390731F403
:1007C0009091630180916201981719F42FEF3FEF28
:1007D0000AC0E0916301F0E0EE5BFE4F8081282FBC
:1007E000332727FD3095C90108951F93CF93DF93D9
:1007F000EC01162F862F60E00E948F178B8D81FDF4
:1008000004C0812F61E00E94CE171C87212F30E0A9
:10081000C9018A5C9E4FFC0184918D872E5D3E4FFD
:10082000F9016491E62FF0E0EE0FFF1FE85EFE4F46
:10083000859194919F878E87DF91CF911F91089525
:10084000FF920F931F938C01F62E862F61E00E947A
:100850008F178F2D61E00E94CE178F2D90E0FC0145
:10086000EA5CFE4FE491D8015096EC9350978E5D70
:100870009E4FFC016491E62FF0E0EE0FFF1FE25F58
:10088000FE4F8591949152969C938E9351971F9110
:100890000F91FF900895FF920F931F938C01F62EF6
:1008A000FC011382128288EE93E0A0E0B0E0848322
:1008B0009583A683B78381E191E091838083148A35
:1008C000138A168A158A108E178A128E118E838DBE
:1008D0002170220F8C7F822B838FC801642F0E948E
:1008E0002004C8016F2D0E94F5031F910F91FF9006
:1008F0000895882319F48CB5806202C08CB58F7D71
:100900008CBD08959CB5937F982B9CBD08952CB504
:10091000382F33702C7F322B3CBD2DB590E0959550
:1009200087959595879581702E7F822B8DBD089533
:100930008AE061E00E94CE178AE061E00E948F1792
:100940008CB580618CBD8CB580648CBD8DE061E020
:100950000E948F178BE061E00E948F17089581E05D
:10096000809381026093F20110927F0210928002C4
:10097000089581E0809381026093F20110927F02DA
:100980001092800208952091F10130E08091F001F1
:10099000281B3109C90108954091F0018091F101AE
:1009A000481718F02FEF3FEF0AC0E42FF0E0EC59A2
:1009B000FE4F8081282F30E04F5F4093F001C90146
:1009C0000895E091F0018091F101E81718F0EFEF40
:1009D000FFEF06C0F0E0EC59FE4F8081E82FF0E019
:1009E000CF0108950895109285021092840288EE36
:1009F00093E0A0E0B0E08093860290938702A093FA
:100A00008802B093890281E291E0909383028093FF
:100A100082020895CF92DF92EF92FF920F931F937D
:100A2000CF93DF937C016B018A018091810288233F
:100A3000A1F0C0E0D0E00DC0D701ED91FC91D6014E
:100A4000AC0FBD1F0190F081E02DC7016C9109959D
:100A50002196C017D10780F304C0CB01642F0E94F8
:100A60004006C801DF91CF911F910F91FF90EF9049
:100A7000DF90CF900895DF93CF930F92CDB7DEB77D
:100A8000FC016983809181028823C9F080918002F2
:100A90008C3838F081E090E09383828320E030E06E
:100AA00015C080917F02E82FF0E0ED50FE4F998154
:100AB00090838F5F80937F028093800205C0CE0178
:100AC000019661E00E94400621E030E0C9010F90EC
:100AD000CF91DF9108950F93062F8091F20163EF7C
:100AE00071E04091800221E00E94EB0510927F02AC
:100AF00010928002109281020F91089561E00E948D
:100B00006B0508954D3808F04CE8862F64E671E0D7
:100B10000E94A2051092F0018093F101089521E056
:100B20000E948205089521E00E9482050895109296
:100B3000F0011092F10110927F02109280020E9447
:100B4000EC070895382F4D3810F040E042C08091F6
:100B50008E028823E1F791E090938E022093900219
:100B60008FEF80933F041092220341504093230360
:100B70004F5F90938F0280918F02330F832B80936E
:100B80008F0280919102813041F410929102809104
:100B90008F028093BB0085EC01C085EE8093BC0082
:100BA00080918E028130E1F380912203841710F44A
:100BB0004091220320E030E00AC0FB01E20FF31F66
:100BC000D901AA56BD4F8C9180832F5F3F4F2417C8
:100BD000A0F3842F08950F931F93582F122F4D3891
:100BE00010F081E04AC080918E028823E1F782E014
:100BF00080938E02009390028FEF80933F041092B7
:100C0000220340932303A6E9B2E0FB0102C08191D5
:100C10008D938E2F861B8417D0F310928F028091B4
:100C20008F02550F852B80938F0280919102813026
:100C300041F41092910280918F028093BB0085EC69
:100C400001C085EE8093BC00112321F080918E02BB
:100C50008230E1F380913F048F3F11F480E00DC0BA
:100C600080913F04803211F482E007C080913F04FC
:100C7000803311F084E001C083E01F910F9108954B
:100C8000482F6D3810F081E0089580918E028430F5
:100C900011F082E008956093B103A4E2B3E0842FE1
:100CA0009C01F90102C081918D938E2F841B8617C0
:100CB000D0F380E008951F920F920FB60F92112487
:100CC0002F933F934F935F936F937F938F939F9354
:100CD000AF93BF93EF93FF938091B90090E0887F2B
:100CE00090708036910509F4F2C081369105CCF5FB
:100CF0008832910509F47BC089329105B4F48031C2
:100D0000910509F46FC0813191053CF4009709F415
:100D100047C1089709F04FC165C08831910509F4B2
:100D200066C0809709F047C182C08034910509F4FC
:100D3000A4C08134910544F48033910509F482C044
:100D4000C89709F038C189C08035910509F489C078
:100D50008835910509F496C08834910509F02BC1B6
:100D6000AEC08839910509F413C189399105ECF4B5
:100D70008837910509F4ABC0893791054CF4883662
:100D8000910509F4A4C08037910509F014C19FC0F2
:100D90008838910509F4FCC08039910509F49DC09B
:100DA0008038910509F007C198C0803B910509F48E
:100DB000C6C0813B91054CF4803A910509F49FC06F
:100DC000883A910509F0F7C0BAC0803C910509F452
:100DD000E3C0883C910509F4DFC0883B910509F028
:100DE000EAC0C2C080918F028093BB00CFC09091B7
:100DF000220380912303981768F490912203E92F2E
:100E0000F0E0EA56FD4F80818093BB009F5F909396
:100E10002203BCC080919002882309F44BC085ED69
:100E20008093BC008091BC0084FDFCCFC2C080E2F6
:100E300080933F0485ED8093BC008091BC0084FDCD
:100E4000FCCFB7C080E380933F0485ED8093BC0066
:100E50008091BC0084FDFCCFACC088E380933F044C
:100E60009BC0809122039091BB00E82FF0E0EA56EE
:100E7000FD4F90838F5F8093220390912203809196
:100E8000230382C0809122039091BB00E82FF0E001
:100E9000EA56FD4F90838F5F8093220380919002EA
:100EA000882341F085ED8093BC008091BC0084FDD7
:100EB000FCCF7FC081E08093910284EA6EC085ED13
:100EC0008093BC008091BC0084FDFCCF72C083E0A5
:100ED00080938E0210923E0459C080913E048C385B
:100EE00008F056C080913E049091BB00E82FF0E0DE
:100EF000EE54FC4F90838F5F80933E0447C08091F7
:100F00003E048C3830F4E0913E04F0E0EE54FC4FA7
:100F1000108285ED8093BC008091BC0084FDFCCFE5
:100F200010928E0260913E04E0919402F09195023D
:100F300082EB93E070E0099510923E042DC084E0AE
:100F400080938E021092B0031092B103E09192024E
:100F5000F091930209958091B103882329F481E0EF
:100F60008093B103109224039091B003E92FF0E035
:100F7000EC5DFC4F80818093BB009F5F9093B0033A
:100F80009091B0038091B103981710F485EC01C0E3
:100F900085E88093BC000FC085EC8093BC0009C03D
:100FA00010923F0485ED8093BC008091BC0084FDCD
:100FB000FCCF10928E02FF91EF91BF91AF919F9164
:100FC0008F917F916F915F914F913F912F910F90F2
:100FD0000FBE0F901F90189510928E0281E08093A3
:100FE00090021092910282E161E00E94CE1783E1AB
:100FF00061E00E94CE17E9EBF0E080818E7F808374
:1010000080818D7F808381E18093B80085E4809327
:10101000BC0008958130910559F46F5F7F4F89F4CA
:101020008DE494E06EE04FE020E00E944B040895D0
:10103000892B39F46F5F7F4F21F48DE494E00E9497
:10104000D302089580E090E06FEF7FEF0E940A08DE
:10105000089581E090E06FEF7FEF0E940A08089505
:101060000F931F9302E812E0C80168E60E94AF04E4
:10107000C80163E00E943B05C80160E00E946B0567
:10108000C80168E641E00E949305C8010E94CC04B3
:101090001F910F9108950F931F9302E812E0C8016A
:1010A00068E60E94AF04C80162E00E943B05C801E7
:1010B00060E00E946B05C80168E641E00E9493056C
:1010C000C8010E94CC04282F2F7330E0B901E5E05D
:1010D00075956795EA95E1F744E150E0FA016E9F56
:1010E000A0016F9F500D7E9F500D11248F70840FB3
:1010F00074E0359527957A95E1F721703070A90154
:1011000063E0440F551F6A95E1F7220F331F420F2A
:10111000531F840F1F910F9108950F931F9302E89F
:1011200012E0C80168E60E94AF04C80161E00E94B5
:101130003B05C80160E00E946B05C80168E641E01C
:101140000E949305C8010E94CC04282F30E0B4E02F
:1011500035952795BA95E1F7A901A3E0440F551FEE
:10116000AA95E1F7220F331F420F531F8F70840F90
:101170001F910F9108950F931F930E944B08182FF2
:101180000E948D08082F0E9430088250853078F424
:10119000812F87508B3058F4183010F40D3238F00E
:1011A000113118F080E00E3218F481E001C080E0C7
:1011B0001F910F91089586E061E00E94CE178AE0AA
:1011C00060E00E94CE1782E08EBD0DB407FEFDCF19
:1011D0008EB51EBC0DB407FEFDCF8EB51EBC0DB482
:1011E00007FEFDCF8EB51EBC0DB407FEFDCF8EB53C
:1011F00080E090E0A0E0B0E01EBC0DB407FEFDCFA3
:101200002EB50196A11DB11D803024EF920721E07B
:10121000A20720E0B20781F78AE061E00E94CE17C2
:1012200086E060E00E94CE170895CF93DF9382E8B6
:1012300092E068E60E94AF0482E892E06FE00E94CC
:101240003B0582E892E060E00E946B0582E892E054
:1012500068E641E00E94930582E892E00E94CC0497
:10126000C82FD0E0CE01880F892F881F990B0197D6
:1012700011F080E019C082E892E068E60E94AF04B5
:1012800082E892E06FE00E943B05CF77D07082E861
:1012900092E06C2F0E943B0582E892E061E00E94A0
:1012A0006B050E94DB0881E0DF91CF9108950F93D9
:1012B0001F938C018AE060E00E94CE1782E08EBD11
:1012C0000DB407FEFDCF8EB51EBC0DB407FEFDCFDD
:1012D0008EB51EBC0DB407FEFDCF8EB51EBC0DB481
:1012E00007FEFDCF8EB51EBD0DB407FEFDCF8EB53A
:1012F0000EBD0DB407FEFDCF8EB58AE061E00E9401
:10130000CE171F910F9108950F931F938AE060E00D
:101310000E94CE1783E08EBD0DB407FEFDCF8EB5C3
:101320001EBC0DB407FEFDCF8EB51EBC0DB407FE6E
:10133000FDCF8EB51EBC0DB407FEFDCF8EB51EBC15
:101340000DB407FEFDCF1EB51EBC0DB407FEFDCFCC
:101350000EB58AE061E00E94CE17912F80E010E088
:10136000082B192BC8011F910F9108952F923F92BE
:101370004F925F926F927F928F929F92AF92BF92A5
:10138000CF92DF92EF92FF920F931F93DF93CF9351
:10139000CDB7DEB728970FB6F894DEBF0FBECDBF2E
:1013A0002C01662E742E28870E9484091C01099640
:1013B00024E0880F991F2A95E1F74C01AA24BB2449
:1013C00082E892E068E60E94AF0482E892E060E082
:1013D0000E943B0582E892E060E00E946B0582E893
:1013E00092E068E647E00E9493058E010F5F1F4F71
:1013F000780188E0C82ED12CCC0EDD1E82E892E068
:101400000E94CC04F70181937F01EC15FD05B1F733
:101410008AE060E00E94CE1782E08EBD0DB407FE28
:10142000FDCF8EB51EBC0DB407FEFDCF8EB5BB271C
:10143000AB2D9A2D892D8EBD0DB407FEFDCF8EB537
:101440008EBC0DB407FEFDCF8EB5862D90E00897BB
:10145000F201E80FF91F089620E030E048E050E084
:10146000481B590B241735072CF41EBC0DB407FE7E
:10147000FDCF05C080818EBD0DB407FEFDCF8EB5BA
:101480002F5F3F4F31962830310561F7F801808199
:101490008EBD0DB407FEFDCF8EB50F5F1F4F0E152D
:1014A0001F05A1F77294A0EF7A22F8857F2A7EBCEF
:1014B0000DB407FEFDCF8EB58AE061E00E94CE1725
:1014C000C10101962FE18B33920710F080E090E08C
:1014D0000E94570928960FB6F894DEBF0FBECDBF05
:1014E000CF91DF911F910F91FF90EF90DF90CF9000
:1014F000BF90AF909F908F907F906F905F904F9034
:101500003F902F9008952F923F924F925F926F924B
:101510007F928F929F92AF92BF92CF92DF92EF9283
:10152000FF920F931F93DF93CF930F92CDB7DEB748
:101530001C01162F0E948D08582E0E944B08682E01
:101540000E943008482E60E570E0CC24DD2476014E
:1015500091E0892E912C9FEFA92E9FEFB92E88E064
:10156000782E711A210E311C16C020E0C21620E020
:10157000D20621E0E20620E0F20618F061E570E014
:1015800002C060E570E080E890E0A0E0B0E0880E86
:10159000991EAA1EBB1E82E892E00E94B90490E048
:1015A000C91690E0D90691E0E90690E0F90628F026
:1015B00055274B2D3A2D292D04C055274F2D3E2D53
:1015C0002D2D82E892E0622F0E943B05A0E0CA1612
:1015D000A0E0DA06A1E0EA06A0E0FA0618F0A5010C
:1015E000940102C0A701960130704070507082E8EB
:1015F00092E0622F0E943B0582E892E060E00E9448
:101600006B05B0E0CB16B0E0DB06B1E0EB06B0E076
:10161000FB0618F460E570E002C061E570E082E866
:1016200092E040E850E00E948F051982072D8091DA
:10163000F001870D8093F001172D11C1011738F4C7
:101640008091F001805E811B8093F0010BC1083016
:1016500009F0F6C082E892E00E94CC04082F82E8EC
:1016600092E00E94CC04182F82E892E00E94CC0401
:10167000E82E82E892E00E94CC04F82E82E892E004
:101680000E94CC04D82E82E892E00E94CC04C82E9E
:1016900082E892E00E94CC04BC011092F00110920A
:1016A000F101812F90E0B4E095958795BA95E1F727
:1016B000837090709C01A3E0220F331FAA95E1F77D
:1016C000880F991F582F520F1F70510F6516A1F4E4
:1016D000802F90E0E4E095958795EA95E1F79C01ED
:1016E00043E0220F331F4A95E1F7880F991F820FBD
:1016F0000F70800F581690F58F2D90E024E095958F
:1017000087952A95E1F7837090709C0103E0220F82
:10171000331F0A95E1F7880F991F482F420FEFE01A
:10172000FE224F0D6416A1F48E2D90E0B4E0959545
:101730008795BA95E1F79C01A3E0220F331FAA9584
:10174000E1F7880F991F820FEE228E0D851530F478
:10175000561508F09FC0641608F09CC02D2D30E08F
:1017600080E890E002C0959587954A94E2F7282397
:101770003923121613060CF08DC09C2D80E06C01ED
:10178000C62AD72AB60180E090E071708070907010
:1017900028E833E140E050E00E94811C7B018C018D
:1017A0008091400490914104A0914204B09143047F
:1017B0008E159F05A007B10749F4109240041092BE
:1017C0004104109242041092430438C08E159F05C4
:1017D000A007B107A8F00E94B416209140043091F0
:1017E00041044091420450914304621B730B840BEB
:1017F000950B6E157F058007910710F082E04BC0B6
:10180000E0924004F0924104009342041093430498
:1018100010924804CD2CDD24C694FFE0CF22DD24B5
:1018200088EE93E09C01C29EC001C39E900DD29EA3
:10183000900D112490934A048093490481E02BC0B9
:1018400082E892E00E94CC04F101E10FF11D38978B
:10185000208130E08217930709F40F5F1F5F103279
:1018600008F4ECCE3981305E3983303809F0DECEB1
:1018700080E890E0A0E0B0E0C80ED91EEA1EFB1E92
:1018800090E0C91694EFD90691E0E90690E0F906D8
:1018900009F06BCE80E00F90CF91DF911F910F91F7
:1018A000FF90EF90DF90CF90BF90AF909F908F9080
:1018B0007F906F905F904F903F902F900895EF92A0
:1018C000FF920F931F938C010E94B41660937704CC
:1018D000709378048093790490937A0488E00E944E
:1018E0002218892B21F484E060E00E94CE1787E063
:1018F0000E942218892B21F482E060E00E94CE171A
:1019000001151105A1F429C088E00E942218892B35
:1019100021F484E060E00E94CE1787E00E94221844
:10192000892B41F482E060E00E94CE1703C0780169
:1019300000E010E00E94B416209177043091780402
:101940004091790450917A04621B730B840B950BC0
:101950006E157F0580079107B8F21F910F91FF90D8
:10196000EF90089580E161E00E948F178AE090E097
:101970000E945F0C80E160E00E948F1708954F92F3
:101980005F926F927F928F929F92AF92BF92DF92FF
:10199000EF92FF920F931F93DF93CF93CDB7DEB7F4
:1019A00027970FB6F894DEBF0FBECDBF0E94B416C6
:1019B0007B018C0110C00E94B4166E197F09800B48
:1019C000910B605D77408040904008F07AC680E0DF
:1019D00090E00E945F0C84EA95E00E94D01A892B67
:1019E00051F384EA95E00E94041B823509F063C03C
:1019F00084EF91E00E945F0C8AE060E00E94CE17C5
:101A000083E08EBD0DB407FEFDCF8EB51EBC0DB4B8
:101A100007FEFDCF8EB51EBC0DB407FEFDCF8EB503
:101A200080E58EBD0DB407FEFDCF8EB580E190E060
:101A30000E947518D92E082F192F982EEE24FF24F6
:101A400080E1A82EB12CA00EB11E21C01EBC0DB489
:101A500007FEFDCF8EB58193EA15FB05B9F784EA41
:101A600095E0692D7D2D40E150E00E94E81B84EA5D
:101A700095E00E94301B80E090E00E945F0C08948B
:101A8000E11CF11C8BE3E8168FE1F80611F0F80178
:101A9000DDCF892D9D2D0E9412198AE061E00E9400
:101AA000CE1710E084EA95E060E00E94401B1F5FC3
:101AB0001035C1F708C68C3409F09EC084EA95E061
:101AC00060E071E00E942E1CEE24FF248701B1E04B
:101AD0008B2E912CBFEFAB2EBFEFBB2E0E94B41606
:101AE0002B013C0110C00E94B416641975098609C7
:101AF0009709605D77408040904008F0E2C580E043
:101B000090E00E945F0C84EA95E00E94D01A803831
:101B100091054CF3B0E0EB16B0E0FB06B1E00B072B
:101B2000B0E01B0718F460E570E002C061E570E00A
:101B300082E892E00E94B904E0E0EE16E0E0FE06E2
:101B4000E1E00E07E0E01E0728F055274B2D3A2D67
:101B5000292D04C05527412F302F2F2D82E892E0E8
:101B6000622F0E943B05F0E0EF16F0E0FF06F1E087
:101B70000F07F0E01F0718F0A501940102C0A801AB
:101B8000970130704070507082E892E0622F0E949E
:101B90003B05DD2484EA95E00E94041B682F82E85F
:101BA00092E00E943B05D39420E8D21699F782E890
:101BB00092E00E947E0584EA95E060E071E00E9478
:101BC0002E1C85E090E00E945F0C80E890E0A0E091
:101BD000B0E0E80EF91E0A1F1B1F880E991EAA1EF0
:101BE000BB1E90E0E91694EFF90691E0090790E03A
:101BF000190709F468C572CF8334B9F50E94B41689
:101C00007B018C0110C00E94B4166E197F09800BF5
:101C1000910B605D77408040904008F052C580E0B5
:101C200090E00E945F0C84EA95E00E94D01A07972A
:101C300054F382E892E068E60E94AF0482E892E002
:101C400060E00E943B0510E084EA95E00E94041BDE
:101C5000682F82E892E00E943B051F5F1730A1F7D2
:101C600082E892E00E947E052CC5833509F0A2C16E
:101C700080E890E00E947518D92EA82EB92E582E13
:101C800084EA95E062E071E00E942E1C0E94B41686
:101C90003B014C0110C00E94B416661977098809EF
:101CA0009909605D77408040904008F072C080E004
:101CB00090E00E945F0C84EA95E00E94D01A02979F
:101CC00054F384EA95E00E94041B7C0184EA95E0C9
:101CD0000E94041B0027F7FC0095102F102F0F2DDA
:101CE000FE2CEE24AA2797FDA095BA2FE82AF92A00
:101CF0000A2B1B2B77E0EE0CFF1C001F111F7A959F
:101D0000D1F7E0E0EE16E4EFFE06E1E00E07E0E0DA
:101D10001E0780F03EC00E94B41666197709880934
:101D20009909605D77408040904098F580E090E0B0
:101D30000E945F0C84EA95E00E94D01A81389105D8
:101D400054F384EA95E0652D7D2D40E850E00E9433
:101D50005D1C84EA95E00E94041B682F852D9D2D53
:101D60009C01F9019924A50140585F4F3CE80CC043
:101D7000208198E0892D8227969480FD93269150AA
:101D800011F02695F7CF3196E417F50789F79616E7
:101D900029F0852D9D2D0E94121993C420E0E21692
:101DA00020E0F20621E0020720E0120718F460E5C7
:101DB00070E002C061E570E082E892E00E94B90440
:101DC00080E0E81680E0F80681E0080780E0180768
:101DD000A8F081E090E0AFEFBFEFE80EF91E0A1F18
:101DE0001B1F5527412F302F2F2D8FEF9FEFA0E086
:101DF000B0E0E80EF91E0A1F1B1F04C05527412F33
:101E0000302F2F2D82E892E0622F0E943B0590E058
:101E1000E91690E0F90691E0090790E01907B0F0A3
:101E200081E090E0AFEFBFEFE80EF91E0A1F1B1F25
:101E3000A80197013070407050708FEF9FEFA0E0C5
:101E4000B0E0E80EF91E0A1F1B1F05C0A80197018C
:101E500030704070507082E892E0622F0E943B0523
:101E600082E892E0652D7D2D40E850E00E940A0551
:101E700082E892E00E947E05852D9D2D0E94121918
:101E800086E090E00E945F0C90E0E91690E0F90691
:101E900091E0090790E0190718F460E570E002C0CE
:101EA00061E570E082E892E00E94B904A0E0EA16E1
:101EB000A0E0FA06A1E00A07A0E01A07A8F081E076
:101EC00090E0AFEFBFEFE80EF91E0A1F1B1F55276A
:101ED000412F302F2F2D8FEF9FEFA0E0B0E0E80EC5
:101EE000F91E0A1F1B1F04C05527412F302F2F2D0D
:101EF00082E892E0622F0E943B0590E0E91690E0B4
:101F0000F90691E0090790E01907B0F081E090E050
:101F1000AFEFBFEFE80EF91E0A1F1B1FA8019701C4
:101F20003070407050708FEF9FEFA0E0B0E0E80E8F
:101F3000F91E0A1F1B1F05C0A801970130704070D1
:101F4000507082E892E0622F0E943B0582E892E0A6
:101F500060E00E946B0590E0E91690E0F90691E0E0
:101F6000090790E0190718F460E570E002C061E528
:101F700070E082E892E040E850E00E948F0520E0A7
:101F8000E4E6F1E04CE80CC0308198E0832F822732
:101F9000269580FD2427915011F03695F7CF319684
:101FA000A1E0E43EFA0781F7291509F08AC31092EF
:101FB000F00180C3823409F0C6C084EA95E060E095
:101FC00071E00E942E1C0E94B4167B018C0110C08F
:101FD0000E94B4166E197F09800B910B605D7740EB
:101FE0008040904008F06DC380E090E00E945F0C5C
:101FF00084EA95E00E94D01A029754F384EA95E0AF
:102000000E94041B7C0184EA95E00E94041B0027C7
:10201000F7FC0095102F102F0F2DFE2CEE24AA2771
:1020200097FDA095BA2FE82AF92A0A2B1B2B89E0E5
:1020300090E0A0E0B0E0E80EF91E0A1F1B1F94E03C
:10204000EE0CFF1C001F111F9A95D1F78AE060E08B
:102050000E94CE1783E08EBD0DB407FEFDCF8EB576
:10206000C801AA27BB278EBD0DB407FEFDCF8EB5D4
:10207000BB27A12F902F8F2D8EBD0DB407FEFDCF56
:102080008EB5EEBC0DB407FEFDCF8EB580E190E0BD
:102090000E947518F92E082F192FE82EF8019801C3
:1020A000205F3F4F1EBC0DB407FEFDCF8EB5819360
:1020B000E217F307B9F784EA95E0B70140E150E091
:1020C0000E94E81BF70160E0A801405F5F4F3CE819
:1020D0000CC0208198E0822F8627669580FD6327BB
:1020E000915011F02695F7CF3196E417F50789F74F
:1020F00084EA95E00E94401B8AE061E00E94CE17CE
:1021000084EA95E00E94301BC7010E9412190E94C8
:10211000B4167B018C0110C00E94B4166E197F09A1
:10212000800B910B605D77408040904008F0C9C201
:1021300080E090E00E945F0C84EA95E00E94D01A53
:10214000892B51F373C18B3409F005C184EA95E002
:1021500060E071E00E942E1C0E94B4167B018C018D
:1021600010C00E94B4166E197F09800B910B605D40
:1021700077408040904008F0A4C280E090E00E9448
:102180005F0C84EA95E00E94D01A029754F384EA27
:1021900095E00E94041B7C0184EA95E00E94041BE8
:1021A0000027F7FC0095102F102F0F2DFE2CEE248A
:1021B000AA2797FDA095BA2FE82AF92A0A2B1B2BEC
:1021C000F7E0EE0CFF1C001F111FFA95D1F7E0E0BD
:1021D000EE16E0E0FE06E1E00E07E0E01E0718F470
:1021E00060E570E002C061E570E082E892E00E9484
:1021F000B904F0E0EF16F0E0FF06F1E00F07F0E0C1
:102200001F07A8F081E090E0AFEFBFEFE80EF91EE6
:102210000A1F1B1F5527412F302F2F2D8FEF9FEFA8
:10222000A0E0B0E0E80EF91E0A1F1B1F04C05527EE
:10223000412F302F2F2D82E892E0622F0E943B0524
:1022400090E0E91690E0F90691E0090790E019079F
:10225000B0F081E090E0AFEFBFEFE80EF91E0A1F8B
:102260001B1FA80197013070407050708FEF9FEFD7
:10227000A0E0B0E0E80EF91E0A1F1B1F05C0A80170
:10228000970130704070507082E892E0622F0E9497
:102290003B0582E892E060E00E946B0590E0E91661
:1022A00090E0F90691E0090790E0190718F460E55D
:1022B00070E002C061E570E082E892E040E850E042
:1022C0000E948F0584EA95E064E671E040E850E002
:1022D0000E94E81B60E0E4E6F1E03CE80CC02081ED
:1022E00098E0822F8627669580FD6327915011F034
:1022F0002695F7CF3196A1E0E43EFA0781F784EA0C
:1023000095E00E94401B1092F00184EA95E060E0A5
:1023100071E00E942E1C84EA95E00E94301B0E940E
:10232000B4167B018C0110C00E94B4166E197F098F
:10233000800B910B605D77408040904008F0C1C1F8
:1023400080E090E00E945F0C84EA95E00E94D01A41
:10235000892B51F36BC0843509F070C082E892E09C
:1023600068E60E94AF0482E892E060E00E943B05CC
:1023700082E892E060E00E946B0582E892E068E605
:1023800047E00E9493057E010894E11CF11C8E0138
:10239000085F1F4F82E892E00E94CC04F70181930E
:1023A0007F01E017F107B1F784EA95E08E010F5F36
:1023B0001F4FB80147E050E00E94E81B60E0F801C1
:1023C0003CE80CC0208198E0822F8627669580FD2E
:1023D0006327915011F02695F7CF3196EE15FF0542
:1023E00089F784EA95E00E94401B84EA95E060E06A
:1023F00071E00E942E1C0E94B4167B018C0110C05B
:102400000E94B4166E197F09800B910B605D7740B6
:102410008040904008F055C180E090E00E945F0C41
:1024200084EA95E00E94D01A892B51F384EA95E062
:102430000E94041B819709F448C143C18135B9F555
:1024400080E090E00E9457098AE060E00E94CE1789
:1024500082E08EBD0DB407FEFDCF8EB51EBC0DB45F
:1024600007FEFDCF8EB51EBC0DB407FEFDCF8EB5A9
:1024700080E98EBD0DB407FEFDCF8EB580E990E0FA
:10248000A0E0B0E01EBC0DB407FEFDCF2EB5019656
:10249000A11DB11D803024EF920721E0A20720E0AA
:1024A000B20781F78AE061E00E94CE1703C18E3443
:1024B00009F0B4C084EA95E060E071E00E942E1C4F
:1024C0000E94B4167B018C0110C00E94B4166E19D4
:1024D0007F09800B910B605D77408040904008F051
:1024E000F0C080E090E00E945F0C84EA95E00E94DA
:1024F000D01A049754F384EA95E00E94041BF82E46
:1025000084EA95E00E94041B1F2D00E0082B192B84
:1025100084EA95E00E94041BF82E84EA95E00E946C
:10252000041B3F2D20E04901882A992A580171C0D7
:10253000750100E010E067E0EE0CFF1C001F111FAA
:102540006A95D1F7B0E0EB16B0E0FB06B1E00B07FF
:10255000B0E01B0718F460E570E002C061E570E0D0
:1025600082E892E00E94B904E0E0EE16E0E0FE06A8
:10257000E1E00E07E0E01E07A8F081E090E0AFEF99
:10258000BFEFE80EF91E0A1F1B1F5527412F302FE2
:102590002F2D8FEF9FEFA0E0B0E0E80EF91E0A1F8D
:1025A0001B1F04C05527412F302F2F2D82E892E0AA
:1025B000622F0E943B0590E0E91690E0F90691E059
:1025C000090790E0190738F0A80197012F5F3F4FE6
:1025D0004040504002C0A8019701307040705070D8
:1025E00082E892E0622F0E943B0510E082E892E0D0
:1025F00060E00E943B051F5F1038C1F782E892E05F
:102600000E947E0586E090E00E945F0C0894A11C69
:10261000B11C8A149B0408F08BCF4CC08A35D1F4CE
:1026200088E00E942218182F87E00E94221820912B
:102630007204220F220F220F60917104660F660F41
:10264000622B880F991F682B612B84EA95E00E940A
:10265000401B3BC08134A9F584EA95E060E071E05D
:102660000E942E1C0E94B4167B018C010FC00E9498
:10267000B4166E197F09800B910B605D7740804026
:102680009040F8F480E090E00E945F0C84EA95E0CE
:102690000E94D01A892B59F384EA95E00E94041B0A
:1026A000282F21702093710490E095958795817073
:1026B0008093720484EA95E065E071E00E942E1C2C
:1026C00004C08FEF03C080E001C081E027960FB601
:1026D000F894DEBF0FBECDBFCF91DF911F910F9158
:1026E000FF90EF90DF90BF90AF909F908F907F9082
:1026F0006F905F904F900895EF92FF920F931F930A
:102700008C010E94C21660937704709378048093C2
:10271000790490937A0488E00E942218892B21F48E
:1027200084E060E00E94CE1787E00E942218892B87
:1027300021F482E060E00E94CE1701151105A1F49A
:1027400029C088E00E942218892B21F484E060E0EF
:102750000E94CE1787E00E942218892B41F482E064
:1027600060E00E94CE1703C0780100E010E00E94F4
:10277000C2162091770430917804409179045091E9
:102780007A04621B730B840B950B6E157F05800713
:102790009107B8F21F910F91FF90EF9008954F921B
:1027A0005F926F927F928F929F92AF92BF92CF92E1
:1027B000DF92EF92FF920F931F93DF93CF93CDB7EA
:1027C000DEB78C01662E4DB65EB685E061E00E94F4
:1027D000CE17D801ED91FC910190F081E02DC80158
:1027E00061E409950E94B4165B016C0110C00E945F
:1027F000B4166A197B098C099D09605A7F40804094
:10280000904008F040C080ED90E00E947C13D80119
:10281000ED91FC910480F581E02DC8010995892B8B
:1028200031F3D801ED91FC910680F781E02DC801CC
:102830000995782ED801ED91FC910190F081E02D61
:10284000C80161E40995E72CFF248DB79EB78E1966
:102850009F090FB6F8949EBF0FBE8DBFCDB6DEB6F2
:102860000894C11CD11C0E94B4164B015C0115C018
:102870000E94B416681979098A099B09605A7F4039
:102880008040904030F085E060E00E94CE1780E00C
:1028900052C081E493E00E947C13D801ED91FC9139
:1028A0000480F581E02DC80109958E159F0504F37C
:1028B000FF240DC0D801ED91FC910680F781E02D39
:1028C000C8010995F601EF0DF11D8083F394F7140B
:1028D00088F3EC2CBD2CC601672D462D0E94830A7F
:1028E000F82ED801ED91FC91A82FB0E0A35DBE4F6A
:1028F0000190F081E02DC8016C910995B1E0FB16C3
:1029000071F40E94B416609344047093450480935C
:1029100046049093470484E060E00E94CE178E2D19
:102920009B2D672D462D2F2D0E94B60985E060E076
:102930000E94CE1781E00FB6F8945EBE0FBE4DBE6A
:10294000CF91DF911F910F91FF90EF90DF90CF908B
:10295000BF90AF909F908F907F906F905F904F90BF
:10296000089580E090E00E945F0C0E94B4162091D0
:10297000690430916A0440916B0450916C04621BAD
:10298000730B840B950B645F71408040904008F49A
:102990006BC00E94B4166093690470936A048093BC
:1029A0006B0490936C040E94BB08882329F084E098
:1029B00060E00E94CE174CC080917104882319F00A
:1029C00084E060E03FC088E00E942218892BE1F19A
:1029D0008091400490914104A0914204B09143043D
:1029E0000097A105B10561F10E94B416209144043D
:1029F000309145044091460450914704621B730B8B
:102A0000840B950B20914004309141044091420485
:102A1000509143046217730784079507A8F084E078
:102A200061E00E94CE1785E060E00E94CE17109210
:102A3000400410924104109242041092430404C0D6
:102A400084E061E00E94CE1780917204882319F01F
:102A500082E060E007C087E00E942218892B21F005
:102A600082E061E00E94CE1784EA95E00E94D01ACD
:102A7000892BC1F183E061E00E94CE1784EA95E0E2
:102A80000E94041BCF97B9F40E94BF0C181634F1B2
:102A90000E94B20C84EA95E00E94D01A892BF1F0D2
:102AA00084EA95E00E94E41ACF97C1F084EA95E0A9
:102AB0000E94041BEFCF0E94B20C84EA95E00E94B2
:102AC000D01A892B59F084EA95E00E94E41ACF9736
:102AD00029F084EA95E00E94041BEFCF83E060E0D8
:102AE0000E94CE1780917104882309F091C00E9442
:102AF000B41620916D0430916E0440916F04509192
:102B00007004621B730B840B950B6D377105810587
:102B1000910508F47DC00E94B41660936D04709313
:102B20006E0480936F049093700480914C0488230A
:102B300051F080914B04882331F081505CC08DE4CA
:102B400094E00E94DC028DE494E00E94FD02892B57
:102B5000B1F78DE494E06DE40E9416030E94B41670
:102B60006093730470937404809375049093760457
:102B700017C00E94B41620917304309174044091E0
:102B8000750450917604621B730B840B950B645F84
:102B900071408040904050F480ED90E00E947C13A2
:102BA0008DE494E00E94FD02892B19F38DE494E0FA
:102BB0000E94FD02892BD1F010924C0410924B041C
:102BC0008DE494E00E94D9038234910551F08DE4A4
:102BD00094E00E94DC02682F8DE494E00E94CF1301
:102BE00008958DE494E00E94DC02089580914C04E5
:102BF000882321F088E080934B04089580914B0452
:102C00008F5F80934B04883019F481E080934C04EB
:102C100008950F931F9389E062E00E948F1781E16E
:102C200062E00E948F1783E061E00E948F1785E0C9
:102C300061E00E948F1786E061E00E948F1788E0B4
:102C400062E00E948F1787E062E00E948F1784E0A5
:102C500061E00E948F1782E061E00E948F1784E09C
:102C600061E00E94CE1782E061E00E94CE1784EA04
:102C700095E040E251EA67E070E00E94521A0DE4EC
:102C800014E0C80140E855E260E070E00E94E10114
:102C9000C8010E94DD0082E892E00E9497050E9430
:102CA000980484E00E94870480E00E94820481E00E
:102CB0000E9479048AE060E00E94CE176AE070E02A
:102CC00080E090E00E94EA168AE061E00E94CE1760
:102CD0000E9415090E94B20C1F910F9108951F9236
:102CE0000F920FB60F9211242F933F938F939F93C0
:102CF000AF93BF9380917F0490918004A091810451
:102D0000B091820430918304232F2A592D3720F06B
:102D10002D570196A11DB11D2093830480937F043C
:102D200090938004A0938104B093820480917B04EB
:102D300090917C04A0917D04B0917E040196A11D28
:102D4000B11D80937B0490937C04A0937D04B09389
:102D50007E04BF91AF919F918F913F912F910F90E2
:102D60000FBE0F901F9018958FB7F89420917F0495
:102D70003091800440918104509182048FBFB90149
:102D8000CA0108953FB7F89480917B0490917C0428
:102D9000A0917D04B0917E0426B5A89B05C02F3F6D
:102DA00019F00196A11DB11D3FBFBA2FA92F982F71
:102DB0008827820F911DA11DB11D9C01AD01220F1D
:102DC000331F441F551F280F391F4A1F5B1FB901AE
:102DD000CA010895EF92FF920F931F937B018C011C
:102DE0009FB7F89420917B0430917C0440917D043E
:102DF00050917E0486B5A89B06C08F3F21F02F5FBF
:102E00003F4F4F4F5F4F9FBF542F432F322F2227EB
:102E1000280F311D411D511DDA01C901880F991F6D
:102E2000AA1FBB1F820F931FA41FB51FBC0132C076
:102E30009FB7F89420917B0430917C0440917D04ED
:102E400050917E0486B5A89B06C08F3F21F02F5F6E
:102E50003F4F4F4F5F4F9FBF542F432F322F22279B
:102E6000280F311D411D511DDA01C901880F991F1D
:102E7000AA1FBB1F820F931FA41FB51F861B970B92
:102E8000885E9340A8F20894E108F108010911094D
:102E900068517C4FE114F1040105110549F61F91B9
:102EA0000F91FF90EF900895789484B5826084BD6F
:102EB00084B5816084BD85B5826085BD85B581603E
:102EC00085BDEEE6F0E0808181608083E1E8F0E09E
:102ED0001082808182608083808181608083E0E8CD
:102EE000F0E0808181608083E1EBF0E080818460AC
:102EF0008083E0EBF0E0808181608083EAE7F0E0AE
:102F00008081846080838081826080838081816011
:102F100080838081806880831092C1000895CF9360
:102F2000DF93482F50E0CA018A5C9E4FFC01349128
:102F30004E5D5E4FFA018491882369F190E0880F1D
:102F4000991FFC01EC5FFE4FA591B491FC01E25F7B
:102F5000FE4FC591D491662351F42FB7F8948C910C
:102F6000932F909589238C93888189230BC062309D
:102F700061F42FB7F8948C91932F909589238C93BB
:102F80008881832B88832FBF06C09FB7F8948C91CC
:102F9000832B8C939FBFDF91CF910895482F50E0F2
:102FA000CA01865B9E4FFC012491CA018A5C9E4F38
:102FB000FC0194914E5D5E4FFA013491332309F484
:102FC00040C0222351F1233071F0243028F4213005
:102FD000A1F0223011F514C02630B1F02730C1F035
:102FE0002430D9F404C0809180008F7703C0809191
:102FF00080008F7D8093800010C084B58F7702C0E1
:1030000084B58F7D84BD09C08091B0008F7703C0E7
:103010008091B0008F7D8093B000E32FF0E0EE0F41
:10302000FF1FE25FFE4FA591B4912FB7F89466237E
:1030300021F48C919095892302C08C91892B8C93DB
:103040002FBF0895682F70E0CB01865B9E4FFC0177
:103050002491CB018A5C9E4FFC0144916E5D7E4FB2
:10306000FB019491992319F420E030E03CC0222325
:1030700051F1233071F0243028F42130A1F02230B6
:1030800011F514C02630B1F02730C1F02430D9F446
:1030900004C0809180008F7703C0809180008F7D75
:1030A0008093800010C084B58F7702C084B58F7D77
:1030B00084BD09C08091B0008F7703C08091B000BB
:1030C0008F7D8093B000892F90E0880F991F885ED4
:1030D0009E4FFC01A591B4918C9120E030E08423B7
:1030E00011F021E030E0C90108950F931F93CF93B1
:1030F000DF93BC018230910510F462E070E0E09152
:10310000C805F091C90540E050E0A0E0B0E024C05F
:103110008081918186179707D0F08617970771F401
:1031200082819381109729F013969C938E93129726
:103130002CC09093C9058093C80527C0411551053F
:1031400019F08417950718F48D01AC01EF01DF0128
:10315000828193819C01F9013097D1F64115510587
:10316000F9F0CA01861B970B8430910580F48A819F
:103170009B810115110521F0F8019383828304C01E
:103180009093C9058093C805FE01329645C0FE01A3
:10319000E80FF91F619371930297998388833CC06C
:1031A0008091C6059091C705892B41F48091090152
:1031B00090910A019093C7058093C60540910B0139
:1031C00050910C014115510541F44DB75EB7809106
:1031D000070190910801481B590B2091C6053091B9
:1031E000C70524173507B0F4CA01821B930B861755
:1031F000970780F0AB014E5F5F4F8417950750F043
:10320000420F531F5093C7054093C605F9016193C0
:10321000719302C0E0E0F0E0CF01DF91CF911F9108
:103220000F910895CF93DF939C01009709F48FC00D
:10323000EC0122971B821A826091C8057091C90522
:103240006115710581F488819981820F931F209106
:10325000C6053091C7052817390739F5D093C7053A
:10326000C093C60574C0DB0140E050E0AC17BD0759
:1032700008F1BB83AA83FE0121913191E20FF31F74
:10328000AE17BF0779F48D919C911197280F391FC4
:103290002E5F3F4F3983288312968D919C9113970F
:1032A0009B838A834115510571F4D093C905C0935E
:1032B000C8054DC012968D919C911397AD01009752
:1032C00011F0DC01D3CFDA011396DC93CE93129781
:1032D000FA0121913191E20FF31FCE17DF0769F454
:1032E00088819981280F391F2E5F3F4FFA01318362
:1032F00020838A819B8193838283E0E0F0E0DB017D
:1033000012968D919C911397009719F0BC01FD01C5
:10331000F6CFAB014E5F5F4FDB018D919C91840F27
:10332000951F2091C6053091C7052817390779F4F4
:10333000309729F41092C9051092C80502C0138273
:103340001282425050405093C7054093C605DF910A
:10335000CF91089508951F920F920FB60F921124E6
:103360002F933F934F935F936F937F938F939F938D
:10337000AF93BF93EF93FF938091C00082FD1FC076
:103380004091C600809110059091110501966CE85E
:1033900070E00E94A01C9C01809112059091130581
:1033A0002817390771F0E0911005F0911105EC57DD
:1033B000FB4F4083309311052093100502C080918C
:1033C000C600FF91EF91BF91AF919F918F917F9137
:1033D0006F915F914F913F912F910F900FBE0F9082
:1033E0001F901895E091B005F091B105E457FF4F9B
:1033F000819191912081318184579F4F821B930B42
:103400006CE870E00E94A01C892B11F00E94AA19A0
:1034100008951F920F920FB60F9211242F933F938E
:103420004F935F936F937F938F939F93AF93BF93CC
:10343000EF93FF932091A0053091A1058091A20503
:103440009091A3052817390731F48091C1008F7D31
:103450008093C10016C0E091A205F091A305EC5E37
:10346000FA4F40818091A2059091A30501966CE8E6
:1034700070E00E94A01C9093A3058093A205409346
:10348000C600FF91EF91BF91AF919F918F917F9176
:103490006F915F914F913F912F910F900FBE0F90C1
:1034A0001F901895AF92BF92DF92EF92FF920F9309
:1034B0001F93CF93DF93EC017A018B01DD24D3942A
:1034C00091E0A92EB12CEC89FD89DD2069F0C501C0
:1034D00008A002C0880F991F0A94E2F7808360E475
:1034E0007BE48CE490E005C0108260EA75E286E23D
:1034F00090E0A80197010E94C71C21503040404035
:103500005040569547953795279580E120303807EC
:1035100020F0DD2011F0DD24D6CFE889F989308351
:10352000EA89FB89208319A2EE89FF89408121E085
:1035300030E0C9010C8C02C0880F991F0A94E2F791
:10354000482B4083EE89FF894081C9010D8C02C060
:10355000880F991F0A94E2F7482B4083EE89FF8970
:103560004081C9010E8C02C0880F991F0A94E2F7AE
:10357000482B4083EE89FF8980810F8C02C0220F87
:10358000331F0A94E2F7209528232083DF91CF91FF
:103590001F910F91FF90EF90DF90BF90AF90089533
:1035A000DC011C96ED91FC911D97E457FF4F819132
:1035B00091912081318184579F4F821B930B6CE83E
:1035C00070E00E94A01C0895DC011C96ED91FC9116
:1035D0001D97E457FF4F20813181EC58F040DF0107
:1035E000A257BF4F8D919C9111972817390719F455
:1035F0002FEF3FEF07C08D919C91E80FF91F80815D
:10360000282F30E0C9010895CF93DF93DC011C9689
:10361000ED91FC911D97E457FF4F20813181EC58CB
:10362000F040EF01C257DF4F888199812817390791
:1036300019F42FEF3FEF10C088819981E80FF91F2F
:1036400040818881998101966CE870E00E94A01CFD
:1036500099838883242F30E0C901DF91CF910895A9
:10366000DC0191968C919197882339F05496ED91D5
:10367000FC915597808186FFF9CF91961C92089511
:10368000CF93DF93EC01462FEE85FF85E457FF4F84
:1036900080819181EC58F04001966CE870E00E94C6
:1036A000A01C9C01DF01A257BF4F8D919C911197E7
:1036B00028173907D1F3E457FF4F80819181EC58E7
:1036C000F040E80FF91F4083EE85FF85E457FF4F78
:1036D00031832083EE89FF89208181E090E00F8C87
:1036E00002C0880F991F0A94E2F7282B208381E0FB
:1036F00089A3EC89FD8980818064808381E090E0EA
:10370000DF91CF9108951092A7051092A60588EE3B
:1037100093E0A0E0B0E08093A8059093A905A09362
:10372000AA05B093AB0584E391E09093A50580933F
:10373000A40584E894E09093B1058093B00584E1FA
:1037400095E09093B3058093B20585EC90E090935B
:10375000B5058093B40584EC90E09093B705809311
:10376000B60580EC90E09093B9058093B80581ECA4
:1037700090E09093BB058093BA0582EC90E0909323
:10378000BD058093BC0586EC90E09093BF058093C7
:10379000BE0584E08093C00583E08093C10587E087
:1037A0008093C20585E08093C30581E08093C405C2
:1037B0000895CF93DF930E9454170E940916C2EF19
:1037C000D9E10E94B1142097E1F30E94F219F9CFD8
:1037D000CF92DF92EF92FF920F931F93CF93DF93DD
:1037E0007C016B018A01C0E0D0E00FC0D6016D9171
:1037F0006D01D701ED91FC910190F081E02DC701A1
:103800000995C80FD91F015010400115110571F716
:10381000CE01DF91CF911F910F91FF90EF90DF903C
:10382000CF900895CF93DF93EC016115710519F4E2
:1038300020E030E00FC0DB010D900020E9F7119788
:10384000A61BB70BE881F9810280F381E02DAD0161
:1038500009959C01C901DF91CF9108950E94121C26
:103860000895CF93DF93EC010E94B416688779879F
:103870008A879B87E881F9810680F781E02DCE0158
:1038800009959C0197FF15C00E94B41628853985BB
:103890004A855B85621B730B840B950B2C813D81E4
:1038A0004E815F81621773078407950718F32FEF26
:1038B0003FEFC901DF91CF910895CF92DF92EF9250
:1038C000FF920F931F93CF93DF936C018B017A01CB
:1038D000C0E0D0E009C0C6010E94311C97FD07C0BE
:1038E000F80181938F012196CE15DF05A0F3CE015B
:1038F000DF91CF911F910F91FF90EF90DF90CF90CC
:103900000895629FD001739FF001829FE00DF11D29
:10391000649FE00DF11D929FF00D839FF00D749F49
:10392000F00D659FF00D9927729FB00DE11DF91FF5
:10393000639FB00DE11DF91FBD01CF011124089552
:10394000AA1BBB1B51E107C0AA1FBB1FA617B707C5
:1039500010F0A61BB70B881F991F5A95A9F78095E1
:103960009095BC01CD01089597FB092E07260AD03A
:1039700077FD04D0E5DF06D000201AF4709561953C
:103980007F4F0895F6F7909581959F4F0895A1E296
:103990001A2EAA1BBB1BFD010DC0AA1FBB1FEE1FC9
:1039A000FF1FA217B307E407F50720F0A21BB30B14
:1039B000E40BF50B661F771F881F991F1A9469F790
:1039C00060957095809590959B01AC01BD01CF01EC
:1039D0000895EE0FFF1F0590F491E02D099411E07A
:1039E000C4E6D1E004C0FE010E94EB1C2296C6365C
:0839F000D107C9F7F894FFCFDD
:1039F8003F003F3F0021008000CA05000000000092
:103A0800001603E81BFD02DC02D903C8030000000E
:103A1800003B050A05C304CC04E104F2044445460E
:103A280000000000401BE81BD01A041BE41A301BDE
:00000001FF
