:100000000C94B3000C94DB000C94DB000C94A30F55
:100010000C94CD0F0C94F70F0C94DB000C94DB00C8
:100020000C94DB000C94DB000C94DB000C94DB00E4
:100030000C94DB000C94DB000C94DB000C94DB00D4
:100040000C944D160C94DB000C9489190C94E71950
:100050000C94DB000C94DB000C94DB000C94DB00B4
:100060000C949E140C94DB0000C2010003001500E8
:100070001500120000E1000014002B002B002900E5
:10008000009600002500490049004600127A000051
:100090002D00590059005800807000002E006200A9
:1000A00062005F00004B0000470094009400910044
:1000B000403800006000C500C500C2008025000077
:1000C0009200290129012601C012000028015302D3
:1000D00053025002600900005002A504A504A204C6
:1000E000B0040000A3044B094B0948095802000062
:1000F0004B099712971293122C0100009712332587
:100100003325302500000000240027002A000000CD
:100110000000250028002B0000000000230026001E
:10012000290004040404040404040202020202027A
:1001300003030303030301020408102040800102AB
:10014000040810200102040810200000000700022B
:100150000100000304060000000000000000FC0095
:100160003613611BF50011241FBECFEFD8E0DEBFB0
:10017000CDBF11E0A0E0B1E0E4EBF9E302C00590EF
:100180000D92A034B107D9F716E0A0E4B1E001C0A8
:100190001D92A633B107E1F711E0C4E6D1E004C037
:1001A0002297FE010E94C91CCE35D107C9F70E94D3
:1001B000B71B0C94CD1C0C9400008130910559F4B0
:1001C0006F5F7F4F89F48DE491E06EE04FE020E0B7
:1001D0000E948E120895892B39F46F5F7F4F21F4AE
:1001E0008DE491E00E941311089580E090E06FEF9C
:1001F0007FEF0E94DD00089581E090E06FEF7FEFD8
:100200000E94DD0008950F931F9309E213E0C801D7
:1002100068E60E94F212C80163E00E947E13C801E2
:1002200060E00E94AE13C80168E641E00E94D61368
:10023000C8010E940F131F910F9108950F931F93F0
:1002400009E213E0C80168E60E94F212C80162E008
:100250000E947E13C80160E00E94AE13C80168E6E8
:1002600041E00E94D613C8010E940F13282F2F735C
:1002700030E0B901E5E075956795EA95E1F744E16D
:1002800050E0FA016E9FA0016F9F500D7E9F500DB0
:1002900011248F70840F74E0359527957A95E1F7D6
:1002A00021703070A90163E0440F551F6A95E1F792
:1002B000220F331F420F531F840F1F910F91089578
:1002C0000F931F9309E213E0C80168E60E94F2123F
:1002D000C80161E00E947E13C80160E00E94AE1375
:1002E000C80168E641E00E94D613C8010E940F13BE
:1002F000282F30E0B4E035952795BA95E1F7A901AC
:10030000A3E0440F551FAA95E1F7220F331F420FB8
:10031000531F8F70840F1F910F91089586E061E045
:100320000E94AC178AE060E00E94AC1782E08EBDAC
:100330000DB407FEFDCF8EB51EBC0DB407FEFDCF7C
:100340008EB51EBC0DB407FEFDCF8EB51EBC0DB420
:1003500007FEFDCF8EB580E090E0A0E0B0E01EBCCF
:100360000DB407FEFDCF2EB50196A11DB11D803045
:1003700024EF920721E0A20720E0B20781F78AE08C
:1003800061E00E94AC1786E060E00E94AC1708951F
:10039000CF93DF9389E293E068E60E94F21289E24C
:1003A00093E06FE00E947E1389E293E060E00E9498
:1003B000AE1389E293E068E641E00E94D61389E239
:1003C00093E00E940F13C82FD0E0CE01880F892F31
:1003D000881F990B019711F080E019C089E293E022
:1003E00068E60E94F21289E293E06FE00E947E13B9
:1003F000CF77D07089E293E06C2F0E947E1389E260
:1004000093E061E00E94AE130E948E0181E0DF91D3
:10041000CF9108950F931F938C018AE060E00E94B2
:10042000AC1782E08EBD0DB407FEFDCF8EB51EBCAD
:100430000DB407FEFDCF8EB51EBC0DB407FEFDCF7B
:100440008EB51EBC0DB407FEFDCF8EB51EBD0DB41E
:1004500007FEFDCF8EB50EBD0DB407FEFDCF8EB5E8
:100460008AE061E00E94AC171F910F9108950F93ED
:100470001F938AE060E00E94AC1783E08EBD0DB44C
:1004800007FEFDCF8EB51EBC0DB407FEFDCF8EB5A9
:100490001EBC0DB407FEFDCF8EB51EBC0DB407FE0D
:1004A000FDCF8EB51EBC0DB407FEFDCF1EB51EBC24
:1004B0000DB407FEFDCF0EB58AE061E00E94AC17D7
:1004C000912F80E010E0082B192BC8011F910F918C
:1004D00008952F923F924F925F926F927F928F92E8
:1004E0009F92AF92BF92CF92DF92EF92FF920F93C3
:1004F0001F93DF93CF93CDB7DEB728970FB6F8944D
:10050000DEBF0FBECDBF2C01662E742E28870E9441
:1005100037021C01099624E0880F991F2A95E1F7FC
:100520004C01AA24BB2489E293E068E60E94F212FF
:1005300089E293E060E00E947E1389E293E060E04C
:100540000E94AE1389E293E068E647E00E94D6136A
:100550008E010F5F1F4F780188E0C82ED12CCC0E82
:10056000DD1E89E293E00E940F13F70181937F0162
:10057000EC15FD05B1F78AE060E00E94AC1782E05F
:100580008EBD0DB407FEFDCF8EB51EBC0DB407FEAB
:10059000FDCF8EB5BB27AB2D9A2D892D8EBD0DB409
:1005A00007FEFDCF8EB58EBC0DB407FEFDCF8EB518
:1005B000862D90E00897F201E80FF91F089620E0D9
:1005C00030E048E050E0481B590B241735072CF465
:1005D0001EBC0DB407FEFDCF05C080818EBD0DB4DD
:1005E00007FEFDCF8EB52F5F3F4F31962830310586
:1005F00061F7F80180818EBD0DB407FEFDCF8EB589
:100600000F5F1F4F0E151F05A1F77294A0EF7A22FE
:10061000F8857F2A7EBC0DB407FEFDCF8EB58AE03B
:1006200061E00E94AC17C10101962FE18733920768
:1006300010F080E090E00E940A0228960FB6F8942D
:10064000DEBF0FBECDBFCF91DF911F910F91FF9005
:10065000EF90DF90CF90BF90AF909F908F907F9062
:100660006F905F904F903F902F9008952F923F9200
:100670004F925F926F927F928F929F92AF92BF92B2
:10068000CF92DF92EF92FF920F931F93DF93CF935E
:100690000F92CDB7DEB71C01162F0E946001582EB5
:1006A0000E941E01682E0E940301482E60E570E042
:1006B000CC24DD24760191E0892E912C9FEFA92E88
:1006C0009FEFB92E88E0782E711A210E311C16C0CA
:1006D00020E0C21620E0D20621E0E20620E0F20689
:1006E00018F061E570E002C060E570E080E890E03D
:1006F000A0E0B0E0880E991EAA1EBB1E89E293E01E
:100700000E94FC1290E0C91690E0D90691E0E9063B
:1007100090E0F90628F055274B2D3A2D292D04C0DD
:1007200055274F2D3E2D2D2D89E293E0622F0E94FB
:100730007E13A0E0CA16A0E0DA06A1E0EA06A0E077
:10074000FA0618F0A501940102C0A70196013070C5
:100750004070507089E293E0622F0E947E1389E21C
:1007600093E060E00E94AE13B0E0CB16B0E0DB0691
:10077000B1E0EB06B0E0FB0618F460E570E002C003
:1007800061E570E089E293E040E850E00E94D21316
:100790001982072D80919702870D80939702172D5C
:1007A00011C1011738F480919702805E811B8093FC
:1007B00097020BC1083009F0F6C089E293E00E946D
:1007C0000F13082F89E293E00E940F13182F89E27C
:1007D00093E00E940F13E82E89E293E00E940F132A
:1007E000F82E89E293E00E940F13D82E89E293E05D
:1007F0000E940F13C82E89E293E00E940F13BC01E0
:100800001092970210929802812F90E0B4E0959593
:100810008795BA95E1F7837090709C01A3E0220F51
:10082000331FAA95E1F7880F991F582F520F1F7099
:10083000510F6516A1F4802F90E0E4E0959587951F
:10084000EA95E1F79C0143E0220F331F4A95E1F757
:10085000880F991F820F0F70800F581690F58F2DFB
:1008600090E024E0959587952A95E1F78370907044
:100870009C0103E0220F331F0A95E1F7880F991FAF
:10088000482F420FEFE0FE224F0D6416A1F48E2D8B
:1008900090E0B4E095958795BA95E1F79C01A3E0C7
:1008A000220F331FAA95E1F7880F991F820FEE22BE
:1008B0008E0D851530F4561508F09FC0641608F0AB
:1008C0009CC02D2D30E080E890E002C09595879582
:1008D0004A94E2F728233923121613060CF08DC030
:1008E0009C2D80E06C01C62AD72AB60180E090E0FA
:1008F00071708070907028E833E140E050E00E9411
:100900005F1C7B018C018091400190914101A0917D
:100910004201B09143018E159F05A007B10749F42C
:100920001092400110924101109242011092430135
:1009300038C08E159F05A007B107A8F00E94921637
:100940002091400130914101409142015091430179
:10095000621B730B840B950B6E157F058007910747
:1009600010F082E04BC0E0924001F0924101009310
:1009700042011093430110924801CD2CDD24C6940E
:10098000FFE0CF22DD2488EE93E09C01C29EC001EF
:10099000C39E900DD29E900D112490934A01809396
:1009A000490181E02BC089E293E00E940F13F1011D
:1009B000E10FF11D3897208130E08217930709F489
:1009C0000F5F1F5F103208F4ECCE3981305E39833F
:1009D000303809F0DECE80E890E0A0E0B0E0C80E4C
:1009E000D91EEA1EFB1E90E0C91694EFD90691E0CD
:1009F000E90690E0F90609F06BCE80E00F90CF9108
:100A0000DF911F910F91FF90EF90DF90CF90BF90FB
:100A1000AF909F908F907F906F905F904F903F909E
:100A20002F900895EF92FF920F931F938C010E94D5
:100A30009216609377017093780180937901909377
:100A40007A0188E00E940018892B21F484E060E09C
:100A50000E94AC1787E00E940018892B21F482E0E5
:100A600060E00E94AC1701151105A1F429C088E0CF
:100A70000E940018892B21F484E060E00E94AC17EA
:100A800087E00E940018892B41F482E060E00E9418
:100A9000AC1703C0780100E010E00E94921620918C
:100AA0007701309178014091790150917A01621B70
:100AB000730B840B950B6E157F0580079107B8F2B9
:100AC0001F910F91FF90EF90089580E161E00E94E7
:100AD0006D178AE090E00E94120580E160E00E94BC
:100AE0006D1708954F925F926F927F928F929F92AF
:100AF000AF92BF92DF92EF92FF920F931F93DF931B
:100B0000CF93CDB7DEB727970FB6F894DEBF0FBEF1
:100B1000CDBF0E9492167B018C0110C00E949216DC
:100B20006E197F09800B910B605D7740804090408B
:100B300008F07AC680E090E00E94120580E196E01D
:100B40000E94AE1A892B51F380E196E00E94E21ACE
:100B5000823509F063C084EF91E00E9412058AE0BB
:100B600060E00E94AC1783E08EBD0DB407FEFDCFA0
:100B70008EB51EBC0DB407FEFDCF8EB51EBC0DB4E8
:100B800007FEFDCF8EB580E58EBD0DB407FEFDCF0F
:100B90008EB580E190E00E945318D92E082F192FAE
:100BA000982EEE24FF2480E1A82EB12CA00EB11EB9
:100BB00021C01EBC0DB407FEFDCF8EB58193EA1592
:100BC000FB05B9F780E196E0692D7D2D40E150E00D
:100BD0000E94C61B80E196E00E940E1B80E090E020
:100BE0000E9412050894E11CF11C8BE3E8168FE1CA
:100BF000F80611F0F801DDCF892D9D2D0E94F01827
:100C00008AE061E00E94AC1710E080E196E060E0CD
:100C10000E941E1B1F5F1035C1F708C68C3409F0F7
:100C20009EC080E196E060E071E00E940C1CEE2422
:100C3000FF248701B1E08B2E912CBFEFAB2EBFEFCD
:100C4000BB2E0E9492162B013C0110C00E949216EE
:100C50006419750986099709605D77408040904066
:100C600008F0E2C580E090E00E94120580E196E085
:100C70000E94AE1A803891054CF3B0E0EB16B0E05C
:100C8000FB06B1E00B07B0E01B0718F460E570E06D
:100C900002C061E570E089E293E00E94FC12E0E0AE
:100CA000EE16E0E0FE06E1E00E07E0E01E0728F0A9
:100CB00055274B2D3A2D292D04C05527412F302F74
:100CC0002F2D89E293E0622F0E947E13F0E0EF1651
:100CD000F0E0FF06F1E00F07F0E01F0718F0A501B4
:100CE000940102C0A801970130704070507089E2F1
:100CF00093E0622F0E947E13DD2480E196E00E9443
:100D0000E21A682F89E293E00E947E13D39420E8D0
:100D1000D21699F789E293E00E94C11380E196E030
:100D200060E071E00E940C1C85E090E00E941205DA
:100D300080E890E0A0E0B0E0E80EF91E0A1F1B1F5B
:100D4000880E991EAA1EBB1E90E0E91694EFF906C4
:100D500091E0090790E0190709F468C572CF833460
:100D6000B9F50E9492167B018C0110C00E94921668
:100D70006E197F09800B910B605D77408040904039
:100D800008F052C580E090E00E94120580E196E0F4
:100D90000E94AE1A079754F389E293E068E60E9436
:100DA000F21289E293E060E00E947E1310E080E19D
:100DB00096E00E94E21A682F89E293E00E947E1377
:100DC0001F5F1730A1F789E293E00E94C1132CC581
:100DD000833509F0A2C180E890E00E945318D92E13
:100DE000A82EB92E582E80E196E062E071E00E94B4
:100DF0000C1C0E9492163B014C0110C00E949216DE
:100E00006619770988099909605D774080409040AC
:100E100008F072C080E090E00E94120580E196E048
:100E20000E94AE1A029754F380E196E00E94E21A03
:100E30007C0180E196E00E94E21A0027F7FC009511
:100E4000102F102F0F2DFE2CEE24AA2797FDA09512
:100E5000BA2FE82AF92A0A2B1B2B77E0EE0CFF1C8D
:100E6000001F111F7A95D1F7E0E0EE16E4EFFE06C1
:100E7000E1E00E07E0E01E0780F03EC00E949216FF
:100E80006619770988099909605D7740804090402C
:100E900098F580E090E00E94120580E196E00E94C3
:100EA000AE1A8138910554F380E196E0652D7D2DD1
:100EB00040E850E00E943B1C80E196E00E94E21A6C
:100EC000682F852D9D2D9C01F9019924A50140587D
:100ED0005F4F3CE80CC0208198E0892D82279694D2
:100EE00080FD9326915011F02695F7CF3196E417A7
:100EF000F50789F7961629F0852D9D2D0E94F0188B
:100F000093C420E0E21620E0F20621E0020720E090
:100F1000120718F460E570E002C061E570E089E254
:100F200093E00E94FC1280E0E81680E0F80681E081
:100F3000080780E01807A8F081E090E0AFEFBFEF6E
:100F4000E80EF91E0A1F1B1F5527412F302F2F2D8A
:100F50008FEF9FEFA0E0B0E0E80EF91E0A1F1B1F05
:100F600004C05527412F302F2F2D89E293E0622FA7
:100F70000E947E1390E0E91690E0F90691E00907DF
:100F800090E01907B0F081E090E0AFEFBFEFE80E1E
:100F9000F91E0A1F1B1FA801970130704070507086
:100FA0008FEF9FEFA0E0B0E0E80EF91E0A1F1B1FB5
:100FB00005C0A801970130704070507089E293E03D
:100FC000622F0E947E1389E293E0652D7D2D40E81B
:100FD00050E00E944D1389E293E00E94C113852DD9
:100FE0009D2D0E94F01886E090E00E94120590E08E
:100FF000E91690E0F90691E0090790E0190718F466
:1010000060E570E002C061E570E089E293E00E9473
:10101000FC12A0E0EA16A0E0FA06A1E00A07A0E0B0
:101020001A07A8F081E090E0AFEFBFEFE80EF91EDD
:101030000A1F1B1F5527412F302F2F2D8FEF9FEF9A
:10104000A0E0B0E0E80EF91E0A1F1B1F04C05527E0
:10105000412F302F2F2D89E293E0622F0E947E13C3
:1010600090E0E91690E0F90691E0090790E0190791
:10107000B0F081E090E0AFEFBFEFE80EF91E0A1F7D
:101080001B1FA80197013070407050708FEF9FEFC9
:10109000A0E0B0E0E80EF91E0A1F1B1F05C0A80162
:1010A000970130704070507089E293E0622F0E9487
:1010B0007E1389E293E060E00E94AE1390E0E916AF
:1010C00090E0F90691E0090790E0190718F460E54F
:1010D00070E002C061E570E089E293E040E850E032
:1010E0000E94D21320E0EBE0F2E04CE80CC030812B
:1010F00098E0832F8227269580FD2427915011F0B8
:101100003695F7CF3196A2E0EB38FA0781F729152B
:1011100009F08AC31092970280C3823409F0C6C0D6
:1011200080E196E060E071E00E940C1C0E94921643
:101130007B018C0110C00E9492166E197F09800BF2
:10114000910B605D77408040904008F06DC380E077
:1011500090E00E94120580E196E00E94AE1A02978C
:1011600054F380E196E00E94E21A7C0180E196E06F
:101170000E94E21A0027F7FC0095102F102F0F2D68
:10118000FE2CEE24AA2797FDA095BA2FE82AF92A6B
:101190000A2B1B2B89E090E0A0E0B0E0E80EF91EDE
:1011A0000A1F1B1F94E0EE0CFF1C001F111F9A95D5
:1011B000D1F78AE060E00E94AC1783E08EBD0DB4E9
:1011C00007FEFDCF8EB5C801AA27BB278EBD0DB483
:1011D00007FEFDCF8EB5BB27A12F902F8F2D8EBD83
:1011E0000DB407FEFDCF8EB5EEBC0DB407FEFDCFEE
:1011F0008EB580E190E00E945318F92E082F192F28
:10120000E82EF8019801205F3F4F1EBC0DB407FE89
:10121000FDCF8EB58193E217F307B9F780E196E031
:10122000B70140E150E00E94C61BF70160E0A80151
:10123000405F5F4F3CE80CC0208198E0822F8627FA
:10124000669580FD6327915011F02695F7CF319672
:10125000E417F50789F780E196E00E941E1B8AE0FB
:1012600061E00E94AC1780E196E00E940E1BC7016E
:101270000E94F0180E9492167B018C0110C00E94FF
:1012800092166E197F09800B910B605D774080404C
:10129000904008F0C9C280E090E00E94120580E111
:1012A00096E00E94AE1A892B51F373C18B3409F07A
:1012B00005C180E196E060E071E00E940C1C0E9494
:1012C00092167B018C0110C00E9492166E197F0944
:1012D000800B910B605D77408040904008F0A4C285
:1012E00080E090E00E94120580E196E00E94AE1A34
:1012F000029754F380E196E00E94E21A7C0180E1BB
:1013000096E00E94E21A0027F7FC0095102F102F9C
:101310000F2DFE2CEE24AA2797FDA095BA2FE82AC0
:10132000F92A0A2B1B2BF7E0EE0CFF1C001F111FE4
:10133000FA95D1F7E0E0EE16E0E0FE06E1E00E07F8
:10134000E0E01E0718F460E570E002C061E570E0BF
:1013500089E293E00E94FC12F0E0EF16F0E0FF0655
:10136000F1E00F07F0E01F07A8F081E090E0AFEF99
:10137000BFEFE80EF91E0A1F1B1F5527412F302F04
:101380002F2D8FEF9FEFA0E0B0E0E80EF91E0A1FAF
:101390001B1F04C05527412F302F2F2D89E293E0CA
:1013A000622F0E947E1390E0E91690E0F90691E02A
:1013B000090790E01907B0F081E090E0AFEFBFEFD0
:1013C000E80EF91E0A1F1B1FA8019701307040701C
:1013D00050708FEF9FEFA0E0B0E0E80EF91E0A1FFB
:1013E0001B1F05C0A801970130704070507089E242
:1013F00093E0622F0E947E1389E293E060E00E94F6
:10140000AE1390E0E91690E0F90691E0090790E04C
:10141000190718F460E570E002C061E570E089E248
:1014200093E040E850E00E94D21380E196E06BE048
:1014300072E040E850E00E94C61B60E0EBE0F2E0A2
:101440003CE80CC0208198E0822F8627669580FDBD
:101450006327915011F02695F7CF3196A2E0EB3833
:10146000FA0781F780E196E00E941E1B1092970216
:1014700080E196E060E071E00E940C1C80E196E063
:101480000E940E1B0E9492167B018C0110C00E94CC
:1014900092166E197F09800B910B605D774080403A
:1014A000904008F0C1C180E090E00E94120580E108
:1014B00096E00E94AE1A892B51F36BC0843509F077
:1014C00070C089E293E068E60E94F21289E293E03C
:1014D00060E00E947E1389E293E060E00E94AE1318
:1014E00089E293E068E647E00E94D6137E01089403
:1014F000E11CF11C8E01085F1F4F89E293E00E94FE
:101500000F13F70181937F01E017F107B1F780E135
:1015100096E08E010F5F1F4FB80147E050E00E9438
:10152000C61B60E0F8013CE80CC0208198E0822FE7
:101530008627669580FD6327915011F02695F7CF99
:101540003196EE15FF0589F780E196E00E941E1B9B
:1015500080E196E060E071E00E940C1C0E9492160F
:101560007B018C0110C00E9492166E197F09800BBE
:10157000910B605D77408040904008F055C180E05D
:1015800090E00E94120580E196E00E94AE1A892B3D
:1015900051F380E196E00E94E21A819709F448C174
:1015A00043C18135B9F580E090E00E940A028AE0EB
:1015B00060E00E94AC1782E08EBD0DB407FEFDCF47
:1015C0008EB51EBC0DB407FEFDCF8EB51EBC0DB48E
:1015D00007FEFDCF8EB580E98EBD0DB407FEFDCFB1
:1015E0008EB580E990E0A0E0B0E01EBC0DB407FE2F
:1015F000FDCF2EB50196A11DB11D803024EF9207BD
:1016000021E0A20720E0B20781F78AE061E00E94B2
:10161000AC1703C18E3409F0B4C080E196E060E0FD
:1016200071E00E940C1C0E9492167B018C0110C07C
:101630000E9492166E197F09800B910B605D7740B6
:101640008040904008F0F0C080E090E00E941205D9
:1016500080E196E00E94AE1A049754F380E196E090
:101660000E94E21AF82E80E196E00E94E21A1F2DF5
:1016700000E0082B192B80E196E00E94E21AF82E78
:1016800080E196E00E94E21A3F2D20E04901882A7D
:10169000992A580171C0750100E010E067E0EE0C76
:1016A000FF1C001F111F6A95D1F7B0E0EB16B0E0E8
:1016B000FB06B1E00B07B0E01B0718F460E570E033
:1016C00002C061E570E089E293E00E94FC12E0E074
:1016D000EE16E0E0FE06E1E00E07E0E01E07A8F0EF
:1016E00081E090E0AFEFBFEFE80EF91E0A1F1B1F6D
:1016F0005527412F302F2F2D8FEF9FEFA0E0B0E027
:10170000E80EF91E0A1F1B1F04C05527412F302F5A
:101710002F2D89E293E0622F0E947E1390E0E9165C
:1017200090E0F90691E0090790E0190738F0A80168
:1017300097012F5F3F4F4040504002C0A8019701E2
:1017400030704070507089E293E0622F0E947E13E7
:1017500010E089E293E060E00E947E131F5F103882
:10176000C1F789E293E00E94C11386E090E00E94F5
:1017700012050894A11CB11C8A149B0408F08BCF9D
:101780004CC08A35D1F488E00E940018182F87E0F9
:101790000E94001820917201220F220F220F6091E7
:1017A0007101660F660F622B880F991F682B612BE2
:1017B00080E196E00E941E1B3BC08134A9F580E1C8
:1017C00096E060E071E00E940C1C0E9492167B0182
:1017D0008C010FC00E9492166E197F09800B910B2D
:1017E000605D774080409040F8F480E090E00E9497
:1017F000120580E196E00E94AE1A892B59F380E130
:1018000096E00E94E21A282F21702093710190E047
:101810009595879581708093720180E196E065E0EF
:1018200071E00E940C1C04C08FEF03C080E001C077
:1018300081E027960FB6F894DEBF0FBECDBFCF91E3
:10184000DF911F910F91FF90EF90DF90BF90AF90CD
:101850009F908F907F906F905F904F900895EF9240
:10186000FF920F931F938C010E94A0166093770143
:10187000709378018093790190937A0188E00E94B7
:101880000018892B21F484E060E00E94AC1787E007
:101890000E940018892B21F482E060E00E94AC17BE
:1018A00001151105A1F429C088E00E940018892BB8
:1018B00021F484E060E00E94AC1787E00E940018E9
:1018C000892B41F482E060E00E94AC1703C07801EC
:1018D00000E010E00E94A01620917701309178017D
:1018E0004091790150917A01621B730B840B950B27
:1018F0006E157F0580079107B8F21F910F91FF9039
:10190000EF9008954F925F926F927F928F929F9285
:10191000AF92BF92CF92DF92EF92FF920F931F93FD
:10192000DF93CF93CDB7DEB78C01662E4DB65EB692
:1019300085E061E00E94AC17D801ED91FC91019027
:10194000F081E02DC80161E409950E9492165B01C7
:101950006C0110C00E9492166A197B098C099D09BE
:10196000605A7F408040904008F040C080ED90E099
:101970000E942F0CD801ED91FC910480F581E02D9F
:10198000C8010995892B31F3D801ED91FC910680AE
:10199000F781E02DC8010995782ED801ED91FC91D1
:1019A0000190F081E02DC80161E40995E72CFF2446
:1019B0008DB79EB78E199F090FB6F8949EBF0FBEC4
:1019C0008DBFCDB6DEB60894C11CD11C0E94921604
:1019D0004B015C0115C00E949216681979098A09A9
:1019E0009B09605A7F408040904030F085E060E085
:1019F0000E94AC1780E052C081E493E00E942F0C5B
:101A0000D801ED91FC910480F581E02DC801099584
:101A10008E159F0504F3FF240DC0D801ED91FC91B4
:101A20000680F781E02DC8010995F601EF0DF11D43
:101A30008083F394F71488F3EC2CBD2CC601672D3A
:101A4000462D0E943603F82ED801ED91FC91A82F67
:101A5000B0E0A35FBE4F0190F081E02DC8016C9112
:101A60000995B1E0FB1671F40E949216609344014F
:101A700070934501809346019093470184E060E0B4
:101A80000E94AC178E2D9B2D672D462D2F2D0E9469
:101A9000690285E060E00E94AC1781E00FB6F8941F
:101AA0005EBE0FBE4DBECF91DF911F910F91FF9093
:101AB000EF90DF90CF90BF90AF909F908F907F90EE
:101AC0006F905F904F90089580E090E00E94120523
:101AD0000E9492162091690130916A0140916B0138
:101AE00050916C01621B730B840B950B645F71400A
:101AF0008040904008F462C00E9492166093690191
:101B000070936A0180936B0190936C0180917101D5
:101B1000882319F084E060E03FC088E00E9400184C
:101B2000892BE1F18091400190914101A091420106
:101B3000B09143010097A105B10561F10E94921691
:101B40002091440130914501409146015091470157
:101B5000621B730B840B950B209140013091410166
:101B60004091420150914301621773078407950722
:101B7000A8F084E061E00E94AC1785E060E00E947C
:101B8000AC17109240011092410110924201109244
:101B9000430104C084E061E00E94AC1780917201AF
:101BA000882319F082E060E007C087E00E940018F7
:101BB000892B21F082E061E00E94AC1780E196E081
:101BC0000E94AE1A892BC1F183E061E00E94AC173C
:101BD00080E196E00E94E21ACF97B9F40E94720564
:101BE000181634F10E94650580E196E00E94AE1A55
:101BF000892BF1F080E196E00E94C21ACF97C1F0E4
:101C000080E196E00E94E21AEFCF0E94650580E134
:101C100096E00E94AE1A892B59F080E196E00E946E
:101C2000C21ACF9729F080E196E00E94E21AEFCF26
:101C300083E060E00E94AC1780917101882309F075
:101C400091C00E94921620916D0130916E014091D9
:101C50006F0150917001621B730B840B950B6D37F4
:101C600071058105910508F47DC00E94921660936C
:101C70006D0170936E0180936F019093700180915C
:101C80004C01882351F080914B01882331F0815021
:101C90005CC08DE491E00E941C118DE491E00E94F3
:101CA0003F11892BB1F78DE491E06DE40E94591149
:101CB0000E94921660937301709374018093750172
:101CC0009093760117C00E94921620917301309173
:101CD00074014091750150917601621B730B840B66
:101CE000950B645F71408040904050F480ED90E02F
:101CF0000E942F0C8DE491E00E943F11892B19F373
:101D00008DE491E00E943F11892BD1F010924C019B
:101D100010924B018DE491E00E941C1282349105D7
:101D200051F08DE491E00E941C11682F8DE491E048
:101D30000E94820C08958DE491E00E941C11089588
:101D400080914C01882321F088E080934B01089515
:101D500080914B018F5F80934B01883019F481E0B3
:101D600080934C0108950F931F9389E062E00E94D5
:101D70006D1781E162E00E946D1783E061E00E94CF
:101D80006D1785E061E00E946D1786E061E00E94BA
:101D90006D1788E062E00E946D1787E062E00E94A4
:101DA0006D1784E061E00E946D1782E061E00E949F
:101DB0006D1784E061E00E94AC1782E061E00E9450
:101DC000AC1780E196E040E251EA67E070E00E94E3
:101DD000301A0DE411E0C80140E855E260E070E01F
:101DE0000E942110C8010E94190F89E293E00E940D
:101DF000DA130E94DB1284E00E94CA1280E00E9483
:101E0000C51281E00E94BC128AE060E00E94AC171B
:101E10006AE070E080E090E00E94C8168AE061E02D
:101E20000E94AC170E94C8010E9465051F910F9186
:101E30000895FC0180917B0190917C018E179F0792
:101E400011F480E00895838D8E7F838F9FB7F8947F
:101E5000109209028091090280930A02F0937C019A
:101E6000E0937B019FBF81E008950F931F93CF9371
:101E7000DF93FC01638D66956170A685B7859585B6
:101E8000662329F08C91892309F458C004C08C91F1
:101E9000892309F053C08389948920E001972FEFAB
:101EA0008F3F9207D9F7C589D689A685B7857585ED
:101EB00010E031E040E050E000E0CE01202F01973B
:101EC0002FEF8F3F9207D9F78C91872311F0132BB7
:101ED00003C0832F80951823330F4F5F5F4F483027
:101EE000510559F78789908D20E001972FEF8F3F9B
:101EF0009207D9F7611110958091090220910A0289
:101F000090E001966CE870E00E94921C30E082172D
:101F1000930789F0E0910902F0E0E358FE4F108347
:101F20008091090290E001966CE870E00E94921C9A
:101F30008093090203C0838D8160838FDF91CF91ED
:101F40001F910F9108951F920F920FB60F921124B7
:101F50002F933F934F935F936F937F938F939F93B1
:101F6000AF93BF93EF93FF9380917B0190917C019E
:101F7000009711F00E94350FFF91EF91BF91AF9143
:101F80009F918F917F916F915F914F913F912F9191
:101F90000F900FBE0F901F9018951F920F920FB6C3
:101FA0000F9211242F933F934F935F936F937F93DF
:101FB0008F939F93AF93BF93EF93FF9380917B0198
:101FC00090917C01009711F00E94350FFF91EF91E5
:101FD000BF91AF919F918F917F916F915F914F9141
:101FE0003F912F910F900FBE0F901F9018951F9249
:101FF0000F920FB60F9211242F933F934F935F933D
:102000006F937F938F939F93AF93BF93EF93FF93C0
:1020100080917B0190917C01009711F00E94350F17
:10202000FF91EF91BF91AF919F918F917F916F91B0
:102030005F914F913F912F910F900FBE0F901F9086
:102040001895CF92DF92EF92FF920F931F93CF9349
:10205000DF93EC017A018B011A8E198E188E1F8A7C
:102060001E8A1D8A1C8A1B8A20E030E06901CC0C84
:10207000DD1CC20ED31EB601660F771F660F771FD9
:10208000AB0148595F4FFA0185919591A591B491A3
:102090008E159F05A007B107E9F4FB01E459FF4F36
:1020A000859194919C8B8B8BFB01E259FF4F85911D
:1020B00094919E8B8D8BFB01E059FF4F85919491FC
:1020C000988F8F8BFB01EE58FF4F859194919A8FDB
:1020D000898F06C02F5F3F4F2D30310509F0C6CFE5
:1020E0008F89988D892B09F449C04C85463108F0B9
:1020F0003DC090916800483010F484E005C04E3037
:1021000010F082E001C081E0892B809368004830A4
:1021100028F4EDE6F0E0ADE6B0E00BC04E3028F07C
:10212000ECE6F0E0ACE6B0E004C0EBE6F0E0ABE6F5
:10213000B0E05081483040F481E090E002C0880F68
:10214000991F4A95E2F710C0242F30E04E3018F462
:102150002850304002C02E50304081E090E002C054
:10216000880F991F2A95E2F7852B8C93898D9A8D7C
:1021700020E001972FEF8F3F9207D9F780917B01E5
:1021800090917C018C179D0781F08B8D8E7F8B8FBA
:102190009FB7F894109209028091090280930A0275
:1021A000D0937C01C0937B019FBFDF91CF911F91A2
:1021B0000F91FF90EF90DF90CF900895FC01448540
:1021C000463180F5483028F4EDE6F0E0ADE6B0E0C9
:1021D0000BC04E3028F4EBE6F0E0ABE6B0E004C014
:1021E000ECE6F0E0ACE6B0E05081483040F481E04D
:1021F00090E002C0880F991F4A95E2F710C0242F83
:1022000030E04E3018F42850304002C02E5030409C
:1022100081E090E002C0880F991F2A95E2F780952F
:1022200085238C930895FC0184E191E09183808360
:10223000CF010E94DE10089520917B0130917C0136
:102240002817390731F490910A02809109029817F2
:1022500019F42FEF3FEF11C0E0910A02F0E0E358CC
:10226000FE4F208180910A0290E001966CE870E0B8
:102270000E94921C80930A0230E0C90108952091C7
:102280007B0130917C012817390719F020E030E0FC
:102290000EC08091090220910A0290E084579F4F5E
:1022A000821B91096CE870E00E94921C9C01C9019C
:1022B00008950F931F93DC0159968D919C915A9725
:1022C000892B49F481E090E013969C938E931297AA
:1022D00020E030E097C00FB7F8945B968C915B9745
:1022E0005196ED91FC91529750962C91509781FF09
:1022F0008DC08081822B808359968D919C915A97B5
:10230000069620E001972FEF8F3F9207D9F75B9653
:102310008C915B9781FF35C031E040E050E070E088
:1023200010E0832F90E0862397235196ED91FC9146
:10233000529750962C915097892B29F080812095A7
:102340002823208303C08081822B808359968D911E
:102350009C915A97212F01972FEF8F3F9207D9F722
:10236000330F4F5F5F4F48305105D9F65196ED91CD
:10237000FC915297908150968C915097809589232B
:1023800033C031E040E050E070E010E0832F90E097
:10239000862397235196ED91FC91529750962C915C
:1023A0005097892B21F08081822B808304C080810B
:1023B00020952823208359968D919C915A97212FFF
:1023C00001972FEF8F3F9207D9F7330F4F5F5F4F82
:1023D00048305105D9F65196ED91FC915297808184
:1023E00050969C915097892B80830FBF59968D9161
:1023F0009C915A9720E001972FEF8F3F9207D9F7D2
:1024000021E030E0C9011F910F910895808120954E
:102410002823208371CF20917B0130917C012817E4
:10242000390749F49FB7F894109209028091090284
:1024300080930A029FBF089520917B0130917C0117
:102440002817390731F490910A02809109029817F0
:1024500019F42FEF3FEF0AC0E0910A02F0E0E358D1
:10246000FE4F8081282F332727FD3095C90108951D
:102470001F93CF93DF93EC01162F862F60E00E940D
:102480006D178B8D81FD04C0812F61E00E94AC1718
:102490001C87212F30E0C9018A5C9E4FFC0184918A
:1024A0008D872E5D3E4FF9016491E62FF0E0EE0F2F
:1024B000FF1FE85EFE4F859194919F878E87DF9185
:1024C000CF911F910895FF920F931F938C01F62EC9
:1024D000862F61E00E946D178F2D61E00E94AC177E
:1024E0008F2D90E0FC01EA5CFE4FE491D8015096FC
:1024F000EC9350978E5D9E4FFC016491E62FF0E0C7
:10250000EE0FFF1FE25FFE4F8591949152969C93D0
:102510008E9351971F910F91FF900895FF920F9303
:102520001F938C01F62EFC011382128288EE93E039
:10253000A0E0B0E084839583A683B78384E191E033
:1025400091838083148A138A168A158A108E178ABB
:10255000128E118E838D2170220F8C7F822B838FA0
:10256000C801642F0E946312C8016F2D0E943812A7
:102570001F910F91FF900895882319F48CB5806204
:1025800002C08CB58F7D8CBD08959CB5937F982B30
:102590009CBD08952CB5382F33702C7F322B3CBD59
:1025A0002DB590E0959587959595879581702E7FAF
:1025B000822B8DBD08958AE061E00E94AC178AE00D
:1025C00061E00E946D178CB580618CBD8CB5806414
:1025D0008CBD8DE061E00E946D178BE061E00E9490
:1025E0006D17089581E080932803609399021092FB
:1025F000260310922703089581E0809328036093B7
:1026000099021092260310922703089520919802B0
:1026100030E080919702281B3109C901089540914B
:10262000970280919802481718F02FEF3FEF0AC0E9
:10263000E42FF0E0E55FFD4F8081282F30E04F5F11
:1026400040939702C9010895E09197028091980202
:10265000E81718F0EFEFFFEF06C0F0E0E55FFD4F81
:102660008081E82FF0E0CF010895089510922C03A7
:1026700010922B0388EE93E0A0E0B0E080932D034E
:1026800090932E03A0932F03B093300384E291E044
:1026900090932A03809329030895CF92DF92EF92BB
:1026A000FF920F931F93CF93DF937C016B018A01FD
:1026B000809128038823A1F0C0E0D0E00DC0D701AD
:1026C000ED91FC91D601AC0FBD1F0190F081E02D82
:1026D000C7016C9109952196C017D10780F304C0FA
:1026E000CB01642F0E948314C801DF91CF911F9109
:1026F0000F91FF90EF90DF90CF900895DF93CF93ED
:102700000F92CDB7DEB7FC0169838091280388233F
:10271000C9F0809127038C3838F081E090E09383F2
:10272000828320E030E015C080912603E82FF0E09E
:10273000E656FD4F998190838F5F809326038093A7
:10274000270305C0CE01019661E00E94831421E0B9
:1027500030E0C9010F90CF91DF9108950F93062FBC
:10276000809199026AE972E04091270321E00E947A
:102770002E141092260310922703109228030F9113
:10278000089561E00E94AE1308954D3808F04CE8BA
:10279000862F6BE072E00E94E513109297028093FF
:1027A0009802089521E00E94C513089521E00E9437
:1027B000C513089510929702109298021092260362
:1027C000109227030E942F160895382F4D3810F0CD
:1027D00040E042C0809135038823E1F791E0909377
:1027E0003503209337038FEF8093E6041092C903DB
:1027F00041504093CA034F5F909336038091360354
:10280000330F832B8093360380913803813041F45A
:1028100010923803809136038093BB0085EC01C091
:1028200085EE8093BC00809135038130E1F3809187
:10283000C903841710F44091C90320E030E00AC0B6
:10284000FB01E20FF31FD901A35CBC4F8C91808385
:102850002F5F3F4F2417A0F3842F08950F931F93EA
:10286000582F122F4D3810F081E04AC08091350367
:102870008823E1F782E080933503009337038FEFDD
:102880008093E6041092C9034093CA03ADE3B3E01A
:10289000FB0102C081918D938E2F861B8417D0F38C
:1028A0001092360380913603550F852B80933603A3
:1028B00080913803813041F41092380380913603BF
:1028C0008093BB0085EC01C085EE8093BC00112392
:1028D00021F0809135038230E1F38091E6048F3F4F
:1028E00011F480E00DC08091E604803211F482E0A2
:1028F00007C08091E604803311F084E001C083E0DA
:102900001F910F910895482F6D3810F081E00895C0
:1029100080913503843011F082E00895609358046B
:10292000ABECB3E0842F9C01F90102C081918D933F
:102930008E2F841B8617D0F380E008951F920F928C
:102940000FB60F9211242F933F934F935F936F9382
:102950007F938F939F93AF93BF93EF93FF93809158
:10296000B90090E0887F90708036910509F4F2C03C
:1029700081369105CCF58832910509F47BC0893206
:102980009105B4F48031910509F46FC0813191054E
:102990003CF4009709F447C1089709F04FC165C09E
:1029A0008831910509F466C0809709F047C182C05B
:1029B0008034910509F4A4C08134910544F4803336
:1029C000910509F482C0C89709F038C189C08035E3
:1029D000910509F489C08835910509F496C08834B9
:1029E000910509F02BC1AEC08839910509F413C1D6
:1029F00089399105ECF48837910509F4ABC0893722
:102A000091054CF48836910509F4A4C080379105EE
:102A100009F014C19FC08838910509F4FCC08039C1
:102A2000910509F49DC08038910509F007C198C04F
:102A3000803B910509F4C6C0813B91054CF4803A76
:102A4000910509F49FC0883A910509F0F7C0BAC012
:102A5000803C910509F4E3C0883C910509F4DFC08E
:102A6000883B910509F0EAC0C2C08091360380938B
:102A7000BB00CFC09091C9038091CA03981768F436
:102A80009091C903E92FF0E0E35CFC4F80818093D3
:102A9000BB009F5F9093C903BCC08091370388231C
:102AA00009F44BC085ED8093BC008091BC0084FD8F
:102AB000FCCFC2C080E28093E60485ED8093BC0029
:102AC0008091BC0084FDFCCFB7C080E38093E60416
:102AD00085ED8093BC008091BC0084FDFCCFACC030
:102AE00088E38093E6049BC08091C9039091BB006A
:102AF000E82FF0E0E35CFC4F90838F5F8093C90385
:102B00009091C9038091CA0382C08091C9039091BA
:102B1000BB00E82FF0E0E35CFC4F90838F5F809375
:102B2000C90380913703882341F085ED8093BC0071
:102B30008091BC0084FDFCCF7FC081E0809338038E
:102B400084EA6EC085ED8093BC008091BC0084FD5A
:102B5000FCCF72C083E0809335031092E50459C026
:102B60008091E5048C3808F056C08091E50490917E
:102B7000BB00E82FF0E0E75AFB4F90838F5F809314
:102B8000E50447C08091E5048C3830F4E091E50419
:102B9000F0E0E75AFB4F108285ED8093BC008091F6
:102BA000BC0084FDFCCF109235036091E504E091F8
:102BB0003B03F0913C0389E594E070E009951092A5
:102BC000E5042DC084E080933503109257041092E1
:102BD0005804E0913903F0913A0309958091580423
:102BE000882329F481E0809358041092CB039091BC
:102BF0005704E92FF0E0E553FC4F80818093BB0040
:102C00009F5F9093570490915704809158049817B0
:102C100010F485EC01C085E88093BC000FC085EC02
:102C20008093BC0009C01092E60485ED8093BC003F
:102C30008091BC0084FDFCCF10923503FF91EF9191
:102C4000BF91AF919F918F917F916F915F914F91C4
:102C50003F912F910F900FBE0F901F9018951092DB
:102C6000350381E0809337031092380382E161E0FD
:102C70000E94AC1783E161E00E94AC17E9EBF0E041
:102C800080818E7F808380818D7F808381E18093AE
:102C9000B80085E48093BC0008951F920F920FB690
:102CA0000F9211242F933F938F939F93AF93BF93D2
:102CB0008091EB049091EC04A091ED04B091EE04AE
:102CC0003091EF04232F2A592D3720F02D570196EC
:102CD000A11DB11D2093EF048093EB049093EC04AD
:102CE000A093ED04B093EE048091E7049091E80482
:102CF000A091E904B091EA040196A11DB11D809351
:102D0000E7049093E804A093E904B093EA04BF9128
:102D1000AF919F918F913F912F910F900FBE0F9088
:102D20001F9018958FB7F8942091EB043091EC0424
:102D30004091ED045091EE048FBFB901CA0108958E
:102D40003FB7F8948091E7049091E804A091E904DA
:102D5000B091EA0426B5A89B05C02F3F19F0019653
:102D6000A11DB11D3FBFBA2FA92F982F8827820F11
:102D7000911DA11DB11D9C01AD01220F331F441FE8
:102D8000551F280F391F4A1F5B1FB901CA0108953B
:102D9000EF92FF920F931F937B018C019FB7F894E2
:102DA0002091E7043091E8044091E9045091EA044D
:102DB00086B5A89B06C08F3F21F02F5F3F4F4F4F36
:102DC0005F4F9FBF542F432F322F2227280F311DD3
:102DD000411D511DDA01C901880F991FAA1FBB1F90
:102DE000820F931FA41FB51FBC0132C09FB7F89478
:102DF0002091E7043091E8044091E9045091EA04FD
:102E000086B5A89B06C08F3F21F02F5F3F4F4F4FE5
:102E10005F4F9FBF542F432F322F2227280F311D82
:102E2000411D511DDA01C901880F991FAA1FBB1F3F
:102E3000820F931FA41FB51F861B970B885E9340BC
:102E4000A8F20894E108F1080109110968517C4FC2
:102E5000E114F1040105110549F61F910F91FF904E
:102E6000EF900895789484B5826084BD84B58160C4
:102E700084BD85B5826085BD85B5816085BDEEE682
:102E8000F0E0808181608083E1E8F0E01082808161
:102E900082608083808181608083E0E8F0E08081CF
:102EA00081608083E1EBF0E0808184608083E0EBEF
:102EB000F0E0808181608083EAE7F0E080818460D7
:102EC0008083808182608083808181608083808133
:102ED000806880831092C1000895CF93DF93482FBC
:102EE00050E0CA018A5C9E4FFC0134914E5D5E4FFA
:102EF000FA018491882369F190E0880F991FFC0101
:102F0000EC5FFE4FA591B491FC01E25FFE4FC591CD
:102F1000D491662351F42FB7F8948C91932F909508
:102F200089238C93888189230BC0623061F42FB789
:102F3000F8948C91932F909589238C938881832B7F
:102F400088832FBF06C09FB7F8948C91832B8C93F6
:102F50009FBFDF91CF910895482F50E0CA01865B53
:102F60009E4FFC012491CA018A5C9E4FFC01949102
:102F70004E5D5E4FFA013491332309F440C02223A1
:102F800051F1233071F0243028F42130A1F02230A7
:102F900011F514C02630B1F02730C1F02430D9F437
:102FA00004C0809180008F7703C0809180008F7D66
:102FB0008093800010C084B58F7702C084B58F7D68
:102FC00084BD09C08091B0008F7703C08091B000AC
:102FD0008F7D8093B000E32FF0E0EE0FFF1FE25FE4
:102FE000FE4FA591B4912FB7F894662321F48C91EC
:102FF0009095892302C08C91892B8C932FBF0895C3
:10300000682F70E0CB01865B9E4FFC012491CB01C1
:103010008A5C9E4FFC0144916E5D7E4FFB01949152
:10302000992319F420E030E03CC0222351F12330F1
:1030300071F0243028F42130A1F0223011F514C0B1
:103040002630B1F02730C1F02430D9F404C080918B
:1030500080008F7703C0809180008F7D80938000F7
:1030600010C084B58F7702C084B58F7D84BD09C040
:103070008091B0008F7703C08091B0008F7D8093E6
:10308000B000892F90E0880F991F885E9E4FFC0149
:10309000A591B4918C9120E030E0842311F021E0DF
:1030A00030E0C90108950F931F93CF93DF93BC01C4
:1030B0008230910510F462E070E0E0913406F09106
:1030C000350640E050E0A0E0B0E024C0808191816E
:1030D00086179707D0F08617970771F4828193813E
:1030E000109729F013969C938E9312972CC090936F
:1030F00035068093340627C04115510519F0841711
:10310000950718F48D01AC01EF01DF0182819381F5
:103110009C01F9013097D1F641155105F9F0CA012A
:10312000861B970B8430910580F48A819B81011561
:10313000110521F0F8019383828304C09093350632
:1031400080933406FE01329645C0FE01E80FF91F58
:10315000619371930297998388833CC08091320672
:1031600090913306892B41F48091090190910A01D5
:10317000909333068093320640910B0150910C01DD
:103180004115510541F44DB75EB78091070190910B
:103190000801481B590B2091320630913306241741
:1031A0003507B0F4CA01821B930B8617970780F08E
:1031B000AB014E5F5F4F8417950750F0420F531FCE
:1031C0005093330640933206F9016193719302C024
:1031D000E0E0F0E0CF01DF91CF911F910F910895D2
:1031E000CF93DF939C01009709F48FC0EC012297E5
:1031F0001B821A8260913406709135066115710543
:1032000081F488819981820F931F20913206309139
:1032100033062817390739F5D0933306C0933206A1
:1032200074C0DB0140E050E0AC17BD0708F1BB8380
:10323000AA83FE0121913191E20FF31FAE17BF0760
:1032400079F48D919C911197280F391F2E5F3F4F74
:103250003983288312968D919C9113979B838A833F
:103260004115510571F4D0933506C09334064DC015
:1032700012968D919C911397AD01009711F0DC018E
:10328000D3CFDA011396DC93CE931297FA012191F2
:103290003191E20FF31FCE17DF0769F4888199811E
:1032A000280F391F2E5F3F4FFA01318320838A8117
:1032B0009B8193838283E0E0F0E0DB0112968D91A5
:1032C0009C911397009719F0BC01FD01F6CFAB015B
:1032D0004E5F5F4FDB018D919C91840F951F209174
:1032E0003206309133062817390779F4309729F4DC
:1032F000109235061092340602C013821282425098
:1033000050405093330640933206DF91CF91089599
:1033100008951F920F920FB60F9211242F933F938F
:103320004F935F936F937F938F939F93AF93BF93CD
:10333000EF93FF938091C00082FD1FC04091C600B3
:1033400080917C0590917D0501966CE870E00E946B
:103350007E1C9C0180917E0590917F05281739077E
:1033600071F0E0917C05F0917D05E051FB4F4083C9
:1033700030937D0520937C0502C08091C600FF91AB
:10338000EF91BF91AF919F918F917F916F915F91DD
:103390004F913F912F910F900FBE0F901F90189556
:1033A000E0911C06F0911D06E457FF4F8191919129
:1033B0002081318184579F4F821B930B6CE870E012
:1033C0000E947E1C892B11F00E94881908951F927B
:1033D0000F920FB60F9211242F933F934F935F9349
:1033E0006F937F938F939F93AF93BF93EF93FF93CD
:1033F00020910C0630910D0680910E0690910F06DB
:103400002817390731F48091C1008F7D8093C10066
:1034100016C0E0910E06F0910F06E058FA4F408179
:1034200080910E0690910F0601966CE870E00E9464
:103430007E1C90930F0680930E064093C600FF916A
:10344000EF91BF91AF919F918F917F916F915F911C
:103450004F913F912F910F900FBE0F901F90189595
:10346000AF92BF92DF92EF92FF920F931F93CF9391
:10347000DF93EC017A018B01DD24D39491E0A92E36
:10348000B12CEC89FD89DD2069F0C50108A002C0DE
:10349000880F991F0A94E2F7808360E47BE48CE450
:1034A00090E005C0108260EA75E286E290E0A80133
:1034B00097010E94A51C2150304040405040569535
:1034C00047953795279580E12030380720F0DD209B
:1034D00011F0DD24D6CFE889F9893083EA89FB89A8
:1034E000208319A2EE89FF89408121E030E0C901E3
:1034F0000C8C02C0880F991F0A94E2F7482B408376
:10350000EE89FF894081C9010D8C02C0880F991F87
:103510000A94E2F7482B4083EE89FF894081C90174
:103520000E8C02C0880F991F0A94E2F7482B408343
:10353000EE89FF8980810F8C02C0220F331F0A940D
:10354000E2F7209528232083DF91CF911F910F91DF
:10355000FF90EF90DF90BF90AF900895DC011C9634
:10356000ED91FC911D97E457FF4F8191919120813E
:10357000318184579F4F821B930B6CE870E00E944F
:103580007E1C0895DC011C96ED91FC911D97E4577B
:10359000FF4F20813181EC58F040DF01A257BF4F2F
:1035A0008D919C9111972817390719F42FEF3FEF50
:1035B00007C08D919C91E80FF91F8081282F30E082
:1035C000C9010895CF93DF93DC011C96ED91FC9126
:1035D0001D97E457FF4F20813181EC58F040EF01F7
:1035E000C257DF4F888199812817390719F42FEFC7
:1035F0003FEF10C088819981E80FF91F40818881D1
:10360000998101966CE870E00E947E1C9983888302
:10361000242F30E0C901DF91CF910895DC0191960C
:103620008C919197882339F05496ED91FC915597A0
:10363000808186FFF9CF91961C920895CF93DF93F6
:10364000EC01462FEE85FF85E457FF4F8081918185
:10365000EC58F04001966CE870E00E947E1C9C01E2
:10366000DF01A257BF4F8D919C9111972817390701
:10367000D1F3E457FF4F80819181EC58F040E80F7F
:10368000F91F4083EE85FF85E457FF4F3183208388
:10369000EE89FF89208181E090E00F8C02C0880FC5
:1036A000991F0A94E2F7282B208381E089A3EC89F3
:1036B000FD8980818064808381E090E0DF91CF91FB
:1036C0000895109213061092120688EE93E0A0E07F
:1036D000B0E08093140690931506A0931606B0935D
:1036E000170684E391E0909311068093100680EF13
:1036F00094E090931D0680931C0680E895E09093DB
:103700001F0680931E0685EC90E09093210680931F
:10371000200684EC90E0909323068093220680ECB0
:1037200090E0909325068093240681EC90E090939E
:1037300027068093260682EC90E0909329068093DA
:10374000280686EC90E090932B0680932A0684E06E
:1037500080932C0683E080932D0687E080932E06CD
:1037600085E080932F0681E0809330060895CF9303
:10377000DF930E9432170E94B30EC0EDD9E10E9480
:10378000640D2097E1F30E94D019F9CFCF92DF9218
:10379000EF92FF920F931F93CF93DF937C016B0106
:1037A0008A01C0E0D0E00FC0D6016D916D01D70154
:1037B000ED91FC910190F081E02DC7010995C80FB2
:1037C000D91F015010400115110571F7CE01DF918D
:1037D000CF911F910F91FF90EF90DF90CF900895C0
:1037E000CF93DF93EC016115710519F420E030E00F
:1037F0000FC0DB010D900020E9F71197A61BB70B56
:10380000E881F9810280F381E02DAD0109959C01E9
:10381000C901DF91CF9108950E94F01B0895CF93C5
:10382000DF93EC010E949216688779878A879B87CD
:10383000E881F9810680F781E02DCE0109959C0190
:1038400097FF15C00E949216288539854A855B85A9
:10385000621B730B840B950B2C813D814E815F8124
:10386000621773078407950718F32FEF3FEFC9011D
:10387000DF91CF910895CF92DF92EF92FF920F9355
:103880001F93CF93DF936C018B017A01C0E0D0E0EE
:1038900009C0C6010E940F1C97FD07C0F801819363
:1038A0008F012196CE15DF05A0F3CE01DF91CF91D8
:1038B0001F910F91FF90EF90DF90CF900895629F3E
:1038C000D001739FF001829FE00DF11D649FE00D18
:1038D000F11D929FF00D839FF00D749FF00D659F79
:1038E000F00D9927729FB00DE11DF91F639FB00D78
:1038F000E11DF91FBD01CF0111240895AA1BBB1BB7
:1039000051E107C0AA1FBB1FA617B70710F0A61BDF
:10391000B70B881F991F5A95A9F780959095BC0100
:10392000CD01089597FB092E07260AD077FD04D014
:10393000E5DF06D000201AF4709561957F4F089559
:10394000F6F7909581959F4F0895A1E21A2EAA1B34
:10395000BB1BFD010DC0AA1FBB1FEE1FFF1FA2173F
:10396000B307E407F50720F0A21BB30BE40BF50B3C
:10397000661F771F881F991F1A9469F760957095C5
:10398000809590959B01AC01BD01CF010895EE0F8C
:10399000FF1F0590F491E02D099411E0C4E6D1E0F9
:1039A00004C0FE010E94C91C2296C636D107C9F781
:0439B000F894FFCFB9
:1039B4003F003F3F0021008000360600004445469A
:1039C400000000005911C61B3F111C111C120B12E0
:1039D400000000007E134D1306130F132413351338
:1039E400000000001E1BC61BAE1AE21AC21A0E1BF0
:00000001FF
